{
  "_format": "hh-sol-artifact-1",
  "contractName": "Vault",
  "sourceName": "contracts/Vault.sol",
  "abi": [
    {
      "inputs": [
        {
          "internalType": "address",
          "name": "_wbtc",
          "type": "address"
        },
        {
          "internalType": "address",
          "name": "_owner",
          "type": "address"
        }
      ],
      "stateMutability": "nonpayable",
      "type": "constructor"
    },
    {
      "inputs": [
        {
          "internalType": "address",
          "name": "spender",
          "type": "address"
        },
        {
          "internalType": "uint256",
          "name": "allowance",
          "type": "uint256"
        },
        {
          "internalType": "uint256",
          "name": "needed",
          "type": "uint256"
        }
      ],
      "name": "ERC20InsufficientAllowance",
      "type": "error"
    },
    {
      "inputs": [
        {
          "internalType": "address",
          "name": "sender",
          "type": "address"
        },
        {
          "internalType": "uint256",
          "name": "balance",
          "type": "uint256"
        },
        {
          "internalType": "uint256",
          "name": "needed",
          "type": "uint256"
        }
      ],
      "name": "ERC20InsufficientBalance",
      "type": "error"
    },
    {
      "inputs": [
        {
          "internalType": "address",
          "name": "approver",
          "type": "address"
        }
      ],
      "name": "ERC20InvalidApprover",
      "type": "error"
    },
    {
      "inputs": [
        {
          "internalType": "address",
          "name": "receiver",
          "type": "address"
        }
      ],
      "name": "ERC20InvalidReceiver",
      "type": "error"
    },
    {
      "inputs": [
        {
          "internalType": "address",
          "name": "sender",
          "type": "address"
        }
      ],
      "name": "ERC20InvalidSender",
      "type": "error"
    },
    {
      "inputs": [
        {
          "internalType": "address",
          "name": "spender",
          "type": "address"
        }
      ],
      "name": "ERC20InvalidSpender",
      "type": "error"
    },
    {
      "inputs": [
        {
          "internalType": "address",
          "name": "receiver",
          "type": "address"
        },
        {
          "internalType": "uint256",
          "name": "assets",
          "type": "uint256"
        },
        {
          "internalType": "uint256",
          "name": "max",
          "type": "uint256"
        }
      ],
      "name": "ERC4626ExceededMaxDeposit",
      "type": "error"
    },
    {
      "inputs": [
        {
          "internalType": "address",
          "name": "receiver",
          "type": "address"
        },
        {
          "internalType": "uint256",
          "name": "shares",
          "type": "uint256"
        },
        {
          "internalType": "uint256",
          "name": "max",
          "type": "uint256"
        }
      ],
      "name": "ERC4626ExceededMaxMint",
      "type": "error"
    },
    {
      "inputs": [
        {
          "internalType": "address",
          "name": "owner",
          "type": "address"
        },
        {
          "internalType": "uint256",
          "name": "shares",
          "type": "uint256"
        },
        {
          "internalType": "uint256",
          "name": "max",
          "type": "uint256"
        }
      ],
      "name": "ERC4626ExceededMaxRedeem",
      "type": "error"
    },
    {
      "inputs": [
        {
          "internalType": "address",
          "name": "owner",
          "type": "address"
        },
        {
          "internalType": "uint256",
          "name": "assets",
          "type": "uint256"
        },
        {
          "internalType": "uint256",
          "name": "max",
          "type": "uint256"
        }
      ],
      "name": "ERC4626ExceededMaxWithdraw",
      "type": "error"
    },
    {
      "inputs": [],
      "name": "EnforcedPause",
      "type": "error"
    },
    {
      "inputs": [],
      "name": "ExpectedPause",
      "type": "error"
    },
    {
      "inputs": [
        {
          "internalType": "address",
          "name": "owner",
          "type": "address"
        }
      ],
      "name": "OwnableInvalidOwner",
      "type": "error"
    },
    {
      "inputs": [
        {
          "internalType": "address",
          "name": "account",
          "type": "address"
        }
      ],
      "name": "OwnableUnauthorizedAccount",
      "type": "error"
    },
    {
      "inputs": [],
      "name": "ReentrancyGuardReentrantCall",
      "type": "error"
    },
    {
      "inputs": [
        {
          "internalType": "address",
          "name": "token",
          "type": "address"
        }
      ],
      "name": "SafeERC20FailedOperation",
      "type": "error"
    },
    {
      "anonymous": false,
      "inputs": [
        {
          "indexed": true,
          "internalType": "address",
          "name": "owner",
          "type": "address"
        },
        {
          "indexed": true,
          "internalType": "address",
          "name": "spender",
          "type": "address"
        },
        {
          "indexed": false,
          "internalType": "uint256",
          "name": "value",
          "type": "uint256"
        }
      ],
      "name": "Approval",
      "type": "event"
    },
    {
      "anonymous": false,
      "inputs": [
        {
          "indexed": true,
          "internalType": "address",
          "name": "sender",
          "type": "address"
        },
        {
          "indexed": true,
          "internalType": "address",
          "name": "owner",
          "type": "address"
        },
        {
          "indexed": false,
          "internalType": "uint256",
          "name": "assets",
          "type": "uint256"
        },
        {
          "indexed": false,
          "internalType": "uint256",
          "name": "shares",
          "type": "uint256"
        }
      ],
      "name": "Deposit",
      "type": "event"
    },
    {
      "anonymous": false,
      "inputs": [
        {
          "indexed": false,
          "internalType": "uint256",
          "name": "oldCap",
          "type": "uint256"
        },
        {
          "indexed": false,
          "internalType": "uint256",
          "name": "newCap",
          "type": "uint256"
        }
      ],
      "name": "DepositCapUpdated",
      "type": "event"
    },
    {
      "anonymous": false,
      "inputs": [
        {
          "indexed": false,
          "internalType": "uint256",
          "name": "oldMin",
          "type": "uint256"
        },
        {
          "indexed": false,
          "internalType": "uint256",
          "name": "newMin",
          "type": "uint256"
        }
      ],
      "name": "DepositMinUpdated",
      "type": "event"
    },
    {
      "anonymous": false,
      "inputs": [
        {
          "indexed": false,
          "internalType": "int256",
          "name": "delta",
          "type": "int256"
        },
        {
          "indexed": false,
          "internalType": "uint256",
          "name": "newNav",
          "type": "uint256"
        }
      ],
      "name": "ExternalNavAdjusted",
      "type": "event"
    },
    {
      "anonymous": false,
      "inputs": [
        {
          "indexed": true,
          "internalType": "address",
          "name": "keeper",
          "type": "address"
        },
        {
          "indexed": false,
          "internalType": "bool",
          "name": "enabled",
          "type": "bool"
        }
      ],
      "name": "KeeperSet",
      "type": "event"
    },
    {
      "anonymous": false,
      "inputs": [
        {
          "indexed": true,
          "internalType": "address",
          "name": "previousOwner",
          "type": "address"
        },
        {
          "indexed": true,
          "internalType": "address",
          "name": "newOwner",
          "type": "address"
        }
      ],
      "name": "OwnershipTransferred",
      "type": "event"
    },
    {
      "anonymous": false,
      "inputs": [
        {
          "indexed": false,
          "internalType": "address",
          "name": "account",
          "type": "address"
        }
      ],
      "name": "Paused",
      "type": "event"
    },
    {
      "anonymous": false,
      "inputs": [
        {
          "indexed": false,
          "internalType": "uint256",
          "name": "oldCap",
          "type": "uint256"
        },
        {
          "indexed": false,
          "internalType": "uint256",
          "name": "newCap",
          "type": "uint256"
        }
      ],
      "name": "PerUserDepositCapUpdated",
      "type": "event"
    },
    {
      "anonymous": false,
      "inputs": [
        {
          "indexed": false,
          "internalType": "uint256",
          "name": "minAmount",
          "type": "uint256"
        }
      ],
      "name": "RebalanceMinUpdated",
      "type": "event"
    },
    {
      "anonymous": false,
      "inputs": [
        {
          "indexed": false,
          "internalType": "uint256",
          "name": "amount",
          "type": "uint256"
        },
        {
          "indexed": false,
          "internalType": "uint256",
          "name": "toA",
          "type": "uint256"
        },
        {
          "indexed": false,
          "internalType": "uint256",
          "name": "toB",
          "type": "uint256"
        }
      ],
      "name": "Rebalanced",
      "type": "event"
    },
    {
      "anonymous": false,
      "inputs": [
        {
          "indexed": false,
          "internalType": "address",
          "name": "recipientA",
          "type": "address"
        },
        {
          "indexed": false,
          "internalType": "address",
          "name": "recipientB",
          "type": "address"
        }
      ],
      "name": "RecipientsUpdated",
      "type": "event"
    },
    {
      "anonymous": false,
      "inputs": [
        {
          "indexed": true,
          "internalType": "address",
          "name": "token",
          "type": "address"
        },
        {
          "indexed": true,
          "internalType": "address",
          "name": "to",
          "type": "address"
        },
        {
          "indexed": false,
          "internalType": "uint256",
          "name": "amount",
          "type": "uint256"
        }
      ],
      "name": "Rescued",
      "type": "event"
    },
    {
      "anonymous": false,
      "inputs": [
        {
          "indexed": false,
          "internalType": "uint16",
          "name": "splitA_BPS",
          "type": "uint16"
        }
      ],
      "name": "SplitUpdated",
      "type": "event"
    },
    {
      "anonymous": false,
      "inputs": [
        {
          "indexed": true,
          "internalType": "address",
          "name": "from",
          "type": "address"
        },
        {
          "indexed": true,
          "internalType": "address",
          "name": "to",
          "type": "address"
        },
        {
          "indexed": false,
          "internalType": "uint256",
          "name": "value",
          "type": "uint256"
        }
      ],
      "name": "Transfer",
      "type": "event"
    },
    {
      "anonymous": false,
      "inputs": [
        {
          "indexed": false,
          "internalType": "address",
          "name": "account",
          "type": "address"
        }
      ],
      "name": "Unpaused",
      "type": "event"
    },
    {
      "anonymous": false,
      "inputs": [
        {
          "indexed": true,
          "internalType": "address",
          "name": "sender",
          "type": "address"
        },
        {
          "indexed": true,
          "internalType": "address",
          "name": "receiver",
          "type": "address"
        },
        {
          "indexed": true,
          "internalType": "address",
          "name": "owner",
          "type": "address"
        },
        {
          "indexed": false,
          "internalType": "uint256",
          "name": "assets",
          "type": "uint256"
        },
        {
          "indexed": false,
          "internalType": "uint256",
          "name": "shares",
          "type": "uint256"
        }
      ],
      "name": "Withdraw",
      "type": "event"
    },
    {
      "inputs": [
        {
          "internalType": "int256",
          "name": "delta",
          "type": "int256"
        }
      ],
      "name": "adjustExternalNav",
      "outputs": [],
      "stateMutability": "nonpayable",
      "type": "function"
    },
    {
      "inputs": [
        {
          "internalType": "address",
          "name": "owner",
          "type": "address"
        },
        {
          "internalType": "address",
          "name": "spender",
          "type": "address"
        }
      ],
      "name": "allowance",
      "outputs": [
        {
          "internalType": "uint256",
          "name": "",
          "type": "uint256"
        }
      ],
      "stateMutability": "view",
      "type": "function"
    },
    {
      "inputs": [
        {
          "internalType": "address",
          "name": "spender",
          "type": "address"
        },
        {
          "internalType": "uint256",
          "name": "value",
          "type": "uint256"
        }
      ],
      "name": "approve",
      "outputs": [
        {
          "internalType": "bool",
          "name": "",
          "type": "bool"
        }
      ],
      "stateMutability": "nonpayable",
      "type": "function"
    },
    {
      "inputs": [],
      "name": "asset",
      "outputs": [
        {
          "internalType": "address",
          "name": "",
          "type": "address"
        }
      ],
      "stateMutability": "view",
      "type": "function"
    },
    {
      "inputs": [
        {
          "internalType": "address",
          "name": "account",
          "type": "address"
        }
      ],
      "name": "balanceOf",
      "outputs": [
        {
          "internalType": "uint256",
          "name": "",
          "type": "uint256"
        }
      ],
      "stateMutability": "view",
      "type": "function"
    },
    {
      "inputs": [
        {
          "internalType": "uint256",
          "name": "shares",
          "type": "uint256"
        }
      ],
      "name": "convertToAssets",
      "outputs": [
        {
          "internalType": "uint256",
          "name": "",
          "type": "uint256"
        }
      ],
      "stateMutability": "view",
      "type": "function"
    },
    {
      "inputs": [
        {
          "internalType": "uint256",
          "name": "assets",
          "type": "uint256"
        }
      ],
      "name": "convertToShares",
      "outputs": [
        {
          "internalType": "uint256",
          "name": "",
          "type": "uint256"
        }
      ],
      "stateMutability": "view",
      "type": "function"
    },
    {
      "inputs": [],
      "name": "decimals",
      "outputs": [
        {
          "internalType": "uint8",
          "name": "",
          "type": "uint8"
        }
      ],
      "stateMutability": "view",
      "type": "function"
    },
    {
      "inputs": [
        {
          "internalType": "uint256",
          "name": "assets",
          "type": "uint256"
        },
        {
          "internalType": "address",
          "name": "receiver",
          "type": "address"
        }
      ],
      "name": "deposit",
      "outputs": [
        {
          "internalType": "uint256",
          "name": "shares",
          "type": "uint256"
        }
      ],
      "stateMutability": "nonpayable",
      "type": "function"
    },
    {
      "inputs": [],
      "name": "depositCap",
      "outputs": [
        {
          "internalType": "uint256",
          "name": "",
          "type": "uint256"
        }
      ],
      "stateMutability": "view",
      "type": "function"
    },
    {
      "inputs": [],
      "name": "depositMin",
      "outputs": [
        {
          "internalType": "uint256",
          "name": "",
          "type": "uint256"
        }
      ],
      "stateMutability": "view",
      "type": "function"
    },
    {
      "inputs": [],
      "name": "externalNav",
      "outputs": [
        {
          "internalType": "uint256",
          "name": "",
          "type": "uint256"
        }
      ],
      "stateMutability": "view",
      "type": "function"
    },
    {
      "inputs": [],
      "name": "idleAssets",
      "outputs": [
        {
          "internalType": "uint256",
          "name": "",
          "type": "uint256"
        }
      ],
      "stateMutability": "view",
      "type": "function"
    },
    {
      "inputs": [
        {
          "internalType": "address",
          "name": "",
          "type": "address"
        }
      ],
      "name": "isKeeper",
      "outputs": [
        {
          "internalType": "bool",
          "name": "",
          "type": "bool"
        }
      ],
      "stateMutability": "view",
      "type": "function"
    },
    {
      "inputs": [
        {
          "internalType": "address",
          "name": "receiver",
          "type": "address"
        }
      ],
      "name": "maxDeposit",
      "outputs": [
        {
          "internalType": "uint256",
          "name": "",
          "type": "uint256"
        }
      ],
      "stateMutability": "view",
      "type": "function"
    },
    {
      "inputs": [
        {
          "internalType": "address",
          "name": "receiver",
          "type": "address"
        }
      ],
      "name": "maxMint",
      "outputs": [
        {
          "internalType": "uint256",
          "name": "",
          "type": "uint256"
        }
      ],
      "stateMutability": "view",
      "type": "function"
    },
    {
      "inputs": [
        {
          "internalType": "address",
          "name": "owner",
          "type": "address"
        }
      ],
      "name": "maxRedeem",
      "outputs": [
        {
          "internalType": "uint256",
          "name": "",
          "type": "uint256"
        }
      ],
      "stateMutability": "view",
      "type": "function"
    },
    {
      "inputs": [
        {
          "internalType": "address",
          "name": "owner",
          "type": "address"
        }
      ],
      "name": "maxWithdraw",
      "outputs": [
        {
          "internalType": "uint256",
          "name": "",
          "type": "uint256"
        }
      ],
      "stateMutability": "view",
      "type": "function"
    },
    {
      "inputs": [
        {
          "internalType": "uint256",
          "name": "shares",
          "type": "uint256"
        },
        {
          "internalType": "address",
          "name": "receiver",
          "type": "address"
        }
      ],
      "name": "mint",
      "outputs": [
        {
          "internalType": "uint256",
          "name": "assets",
          "type": "uint256"
        }
      ],
      "stateMutability": "nonpayable",
      "type": "function"
    },
    {
      "inputs": [],
      "name": "name",
      "outputs": [
        {
          "internalType": "string",
          "name": "",
          "type": "string"
        }
      ],
      "stateMutability": "view",
      "type": "function"
    },
    {
      "inputs": [],
      "name": "owner",
      "outputs": [
        {
          "internalType": "address",
          "name": "",
          "type": "address"
        }
      ],
      "stateMutability": "view",
      "type": "function"
    },
    {
      "inputs": [],
      "name": "pause",
      "outputs": [],
      "stateMutability": "nonpayable",
      "type": "function"
    },
    {
      "inputs": [],
      "name": "paused",
      "outputs": [
        {
          "internalType": "bool",
          "name": "",
          "type": "bool"
        }
      ],
      "stateMutability": "view",
      "type": "function"
    },
    {
      "inputs": [],
      "name": "perUserDepositCap",
      "outputs": [
        {
          "internalType": "uint256",
          "name": "",
          "type": "uint256"
        }
      ],
      "stateMutability": "view",
      "type": "function"
    },
    {
      "inputs": [
        {
          "internalType": "uint256",
          "name": "assets",
          "type": "uint256"
        }
      ],
      "name": "previewDeposit",
      "outputs": [
        {
          "internalType": "uint256",
          "name": "",
          "type": "uint256"
        }
      ],
      "stateMutability": "view",
      "type": "function"
    },
    {
      "inputs": [
        {
          "internalType": "uint256",
          "name": "shares",
          "type": "uint256"
        }
      ],
      "name": "previewMint",
      "outputs": [
        {
          "internalType": "uint256",
          "name": "",
          "type": "uint256"
        }
      ],
      "stateMutability": "view",
      "type": "function"
    },
    {
      "inputs": [
        {
          "internalType": "uint256",
          "name": "shares",
          "type": "uint256"
        }
      ],
      "name": "previewRedeem",
      "outputs": [
        {
          "internalType": "uint256",
          "name": "",
          "type": "uint256"
        }
      ],
      "stateMutability": "view",
      "type": "function"
    },
    {
      "inputs": [
        {
          "internalType": "uint256",
          "name": "assets",
          "type": "uint256"
        }
      ],
      "name": "previewWithdraw",
      "outputs": [
        {
          "internalType": "uint256",
          "name": "",
          "type": "uint256"
        }
      ],
      "stateMutability": "view",
      "type": "function"
    },
    {
      "inputs": [
        {
          "internalType": "uint256",
          "name": "amount",
          "type": "uint256"
        }
      ],
      "name": "rebalance",
      "outputs": [],
      "stateMutability": "nonpayable",
      "type": "function"
    },
    {
      "inputs": [],
      "name": "rebalanceMin",
      "outputs": [
        {
          "internalType": "uint256",
          "name": "",
          "type": "uint256"
        }
      ],
      "stateMutability": "view",
      "type": "function"
    },
    {
      "inputs": [],
      "name": "recipientA",
      "outputs": [
        {
          "internalType": "address",
          "name": "",
          "type": "address"
        }
      ],
      "stateMutability": "view",
      "type": "function"
    },
    {
      "inputs": [],
      "name": "recipientB",
      "outputs": [
        {
          "internalType": "address",
          "name": "",
          "type": "address"
        }
      ],
      "stateMutability": "view",
      "type": "function"
    },
    {
      "inputs": [
        {
          "internalType": "uint256",
          "name": "shares",
          "type": "uint256"
        },
        {
          "internalType": "address",
          "name": "receiver",
          "type": "address"
        },
        {
          "internalType": "address",
          "name": "owner_",
          "type": "address"
        }
      ],
      "name": "redeem",
      "outputs": [
        {
          "internalType": "uint256",
          "name": "assets",
          "type": "uint256"
        }
      ],
      "stateMutability": "nonpayable",
      "type": "function"
    },
    {
      "inputs": [],
      "name": "renounceOwnership",
      "outputs": [],
      "stateMutability": "nonpayable",
      "type": "function"
    },
    {
      "inputs": [
        {
          "internalType": "address",
          "name": "token",
          "type": "address"
        },
        {
          "internalType": "address",
          "name": "to",
          "type": "address"
        },
        {
          "internalType": "uint256",
          "name": "amount",
          "type": "uint256"
        }
      ],
      "name": "rescue",
      "outputs": [],
      "stateMutability": "nonpayable",
      "type": "function"
    },
    {
      "inputs": [
        {
          "internalType": "uint256",
          "name": "newCap",
          "type": "uint256"
        }
      ],
      "name": "setDepositCap",
      "outputs": [],
      "stateMutability": "nonpayable",
      "type": "function"
    },
    {
      "inputs": [
        {
          "internalType": "uint256",
          "name": "newMin",
          "type": "uint256"
        }
      ],
      "name": "setDepositMin",
      "outputs": [],
      "stateMutability": "nonpayable",
      "type": "function"
    },
    {
      "inputs": [
        {
          "internalType": "address",
          "name": "keeper",
          "type": "address"
        },
        {
          "internalType": "bool",
          "name": "enabled",
          "type": "bool"
        }
      ],
      "name": "setKeeper",
      "outputs": [],
      "stateMutability": "nonpayable",
      "type": "function"
    },
    {
      "inputs": [
        {
          "internalType": "uint256",
          "name": "newCap",
          "type": "uint256"
        }
      ],
      "name": "setPerUserDepositCap",
      "outputs": [],
      "stateMutability": "nonpayable",
      "type": "function"
    },
    {
      "inputs": [
        {
          "internalType": "uint256",
          "name": "minAmount",
          "type": "uint256"
        }
      ],
      "name": "setRebalanceMin",
      "outputs": [],
      "stateMutability": "nonpayable",
      "type": "function"
    },
    {
      "inputs": [
        {
          "internalType": "address",
          "name": "_A",
          "type": "address"
        },
        {
          "internalType": "address",
          "name": "_B",
          "type": "address"
        }
      ],
      "name": "setRecipients",
      "outputs": [],
      "stateMutability": "nonpayable",
      "type": "function"
    },
    {
      "inputs": [
        {
          "internalType": "uint16",
          "name": "_splitA_BPS",
          "type": "uint16"
        }
      ],
      "name": "setSplitBPS",
      "outputs": [],
      "stateMutability": "nonpayable",
      "type": "function"
    },
    {
      "inputs": [],
      "name": "splitA_BPS",
      "outputs": [
        {
          "internalType": "uint16",
          "name": "",
          "type": "uint16"
        }
      ],
      "stateMutability": "view",
      "type": "function"
    },
    {
      "inputs": [],
      "name": "symbol",
      "outputs": [
        {
          "internalType": "string",
          "name": "",
          "type": "string"
        }
      ],
      "stateMutability": "view",
      "type": "function"
    },
    {
      "inputs": [],
      "name": "totalAssets",
      "outputs": [
        {
          "internalType": "uint256",
          "name": "",
          "type": "uint256"
        }
      ],
      "stateMutability": "view",
      "type": "function"
    },
    {
      "inputs": [],
      "name": "totalSupply",
      "outputs": [
        {
          "internalType": "uint256",
          "name": "",
          "type": "uint256"
        }
      ],
      "stateMutability": "view",
      "type": "function"
    },
    {
      "inputs": [
        {
          "internalType": "address",
          "name": "to",
          "type": "address"
        },
        {
          "internalType": "uint256",
          "name": "value",
          "type": "uint256"
        }
      ],
      "name": "transfer",
      "outputs": [
        {
          "internalType": "bool",
          "name": "",
          "type": "bool"
        }
      ],
      "stateMutability": "nonpayable",
      "type": "function"
    },
    {
      "inputs": [
        {
          "internalType": "address",
          "name": "from",
          "type": "address"
        },
        {
          "internalType": "address",
          "name": "to",
          "type": "address"
        },
        {
          "internalType": "uint256",
          "name": "value",
          "type": "uint256"
        }
      ],
      "name": "transferFrom",
      "outputs": [
        {
          "internalType": "bool",
          "name": "",
          "type": "bool"
        }
      ],
      "stateMutability": "nonpayable",
      "type": "function"
    },
    {
      "inputs": [
        {
          "internalType": "address",
          "name": "newOwner",
          "type": "address"
        }
      ],
      "name": "transferOwnership",
      "outputs": [],
      "stateMutability": "nonpayable",
      "type": "function"
    },
    {
      "inputs": [],
      "name": "unpause",
      "outputs": [],
      "stateMutability": "nonpayable",
      "type": "function"
    },
    {
      "inputs": [
        {
          "internalType": "uint256",
          "name": "assets",
          "type": "uint256"
        },
        {
          "internalType": "address",
          "name": "receiver",
          "type": "address"
        },
        {
          "internalType": "address",
          "name": "owner_",
          "type": "address"
        }
      ],
      "name": "withdraw",
      "outputs": [
        {
          "internalType": "uint256",
          "name": "shares",
          "type": "uint256"
        }
      ],
      "stateMutability": "nonpayable",
      "type": "function"
    }
  ],
  "bytecode": "0x60c06040523480156200001157600080fd5b506040516200476f3803806200476f833981810160405281019062000037919062000476565b80826040518060400160405280601181526020017f7957425443205661756c742053686172650000000000000000000000000000008152506040518060400160405280600581526020017f79574254430000000000000000000000000000000000000000000000000000008152508160039081620000b6919062000737565b508060049081620000c8919062000737565b505050600080620000df836200022c60201b60201c565b9150915081620000f1576012620000f3565b805b60ff1660a08160ff16815250508273ffffffffffffffffffffffffffffffffffffffff1660808173ffffffffffffffffffffffffffffffffffffffff1681525050505050600073ffffffffffffffffffffffffffffffffffffffff168173ffffffffffffffffffffffffffffffffffffffff1603620001ac5760006040517f1e4fbdf7000000000000000000000000000000000000000000000000000000008152600401620001a391906200082f565b60405180910390fd5b620001bd816200034660201b60201c565b5060016006819055507fffffffffffffffffffffffffffffffffffffffffffffffffffffffffffffffff60078190555060006008819055506000600981905550612134600b60146101000a81548161ffff021916908361ffff1602179055506000600c81905550505062000941565b6000806000808473ffffffffffffffffffffffffffffffffffffffff1660405160240160405160208183030381529060405263313ce56760e01b6020820180517bffffffffffffffffffffffffffffffffffffffffffffffffffffffff8381831617835250505050604051620002a39190620008c5565b600060405180830381855afa9150503d8060008114620002e0576040519150601f19603f3d011682016040523d82523d6000602084013e620002e5565b606091505b5091509150818015620002fa57506020815110155b1562000337576000818060200190518101906200031891906200090f565b905060ff8016811162000335576001819450945050505062000341565b505b6000809350935050505b915091565b6000600560009054906101000a900473ffffffffffffffffffffffffffffffffffffffff16905081600560006101000a81548173ffffffffffffffffffffffffffffffffffffffff021916908373ffffffffffffffffffffffffffffffffffffffff1602179055508173ffffffffffffffffffffffffffffffffffffffff168173ffffffffffffffffffffffffffffffffffffffff167f8be0079c531659141344cd1fd0a4f28419497f9722a3daafe3b4186f6b6457e060405160405180910390a35050565b600080fd5b600073ffffffffffffffffffffffffffffffffffffffff82169050919050565b60006200043e8262000411565b9050919050565b620004508162000431565b81146200045c57600080fd5b50565b600081519050620004708162000445565b92915050565b6000806040838503121562000490576200048f6200040c565b5b6000620004a0858286016200045f565b9250506020620004b3858286016200045f565b9150509250929050565b600081519050919050565b7f4e487b7100000000000000000000000000000000000000000000000000000000600052604160045260246000fd5b7f4e487b7100000000000000000000000000000000000000000000000000000000600052602260045260246000fd5b600060028204905060018216806200053f57607f821691505b602082108103620005555762000554620004f7565b5b50919050565b60008190508160005260206000209050919050565b60006020601f8301049050919050565b600082821b905092915050565b600060088302620005bf7fffffffffffffffffffffffffffffffffffffffffffffffffffffffffffffffff8262000580565b620005cb868362000580565b95508019841693508086168417925050509392505050565b6000819050919050565b6000819050919050565b600062000618620006126200060c84620005e3565b620005ed565b620005e3565b9050919050565b6000819050919050565b6200063483620005f7565b6200064c62000643826200061f565b8484546200058d565b825550505050565b600090565b6200066362000654565b6200067081848462000629565b505050565b5b8181101562000698576200068c60008262000659565b60018101905062000676565b5050565b601f821115620006e757620006b1816200055b565b620006bc8462000570565b81016020851015620006cc578190505b620006e4620006db8562000570565b83018262000675565b50505b505050565b600082821c905092915050565b60006200070c60001984600802620006ec565b1980831691505092915050565b6000620007278383620006f9565b9150826002028217905092915050565b6200074282620004bd565b67ffffffffffffffff8111156200075e576200075d620004c8565b5b6200076a825462000526565b620007778282856200069c565b600060209050601f831160018114620007af57600084156200079a578287015190505b620007a6858262000719565b86555062000816565b601f198416620007bf866200055b565b60005b82811015620007e957848901518255600182019150602085019450602081019050620007c2565b8683101562000809578489015162000805601f891682620006f9565b8355505b6001600288020188555050505b505050505050565b620008298162000431565b82525050565b60006020820190506200084660008301846200081e565b92915050565b600081519050919050565b600081905092915050565b60005b838110156200088257808201518184015260208101905062000865565b60008484015250505050565b60006200089b826200084c565b620008a7818562000857565b9350620008b981856020860162000862565b80840191505092915050565b6000620008d382846200088e565b915081905092915050565b620008e981620005e3565b8114620008f557600080fd5b50565b6000815190506200090981620008de565b92915050565b6000602082840312156200092857620009276200040c565b5b60006200093884828501620008f8565b91505092915050565b60805160a051613e0b62000964600039600050506000610f0d0152613e0b6000f3fe608060405234801561001057600080fd5b50600436106102f15760003560e01c80638456cb591161019d578063c6e6f592116100e9578063dd62ed3e116100a2578063ed87cf461161007c578063ed87cf4614610980578063ef8b30f71461099e578063f2fde38b146109ce578063f4993018146109ea576102f1565b8063dd62ed3e14610916578063df2b0cf314610946578063e16b03a314610962576102f1565b8063c6e6f5921461082e578063ce96cb771461085e578063d1b9e8531461088e578063d905777e146108aa578063d9d4410a146108da578063dbd5edc7146108f8576102f1565b806395d89b4111610156578063b460af9411610130578063b460af9414610782578063ba087652146107b2578063bad95ca2146107e2578063c63d75b6146107fe576102f1565b806395d89b4114610704578063a9059cbb14610722578063b3d7f6b914610752576102f1565b80638456cb591461065657806386651203146106605780638c6c27851461067c5780638da5cb5b1461069a5780639343ed32146106b857806394bf804d146106d4576102f1565b806338d52e0f1161025c5780635c975abb116102155780636dbd3c94116101ef5780636dbd3c94146105ce5780636e553f65146105ec57806370a082311461061c578063715018a61461064c576102f1565b80635c975abb146105625780635e14f1de146105805780636ba42aaa1461059e576102f1565b806338d52e0f146104a05780633af48ce9146104be5780633f4ba83a146104dc578063402d267d146104e65780634b5db8f8146105165780634cdad50614610532576102f1565b806316de1335116102ae57806316de1335146103de57806318160ddd146103fa57806320ff430b1461041857806323b872dd1461043457806328ad999714610464578063313ce56714610482576102f1565b806301e1d114146102f657806304fd703e1461031457806306fdde031461033057806307a2d13a1461034e578063095ea7b31461037e5780630a28a477146103ae575b600080fd5b6102fe610a06565b60405161030b9190612ed8565b60405180910390f35b61032e60048036038101906103299190612f24565b610a9b565b005b610338610aee565b6040516103459190612fe1565b60405180910390f35b61036860048036038101906103639190612f24565b610b80565b6040516103759190612ed8565b60405180910390f35b61039860048036038101906103939190613061565b610b94565b6040516103a591906130bc565b60405180910390f35b6103c860048036038101906103c39190612f24565b610bb7565b6040516103d59190612ed8565b60405180910390f35b6103f860048036038101906103f391906130d7565b610bcb565b005b610402610d3b565b60405161040f9190612ed8565b60405180910390f35b610432600480360381019061042d9190613117565b610d45565b005b61044e60048036038101906104499190613117565b610e57565b60405161045b91906130bc565b60405180910390f35b61046c610e86565b6040516104799190612ed8565b60405180910390f35b61048a610e8c565b6040516104979190613186565b60405180910390f35b6104a8610f09565b6040516104b591906131b0565b60405180910390f35b6104c6610f31565b6040516104d391906131b0565b60405180910390f35b6104e4610f57565b005b61050060048036038101906104fb91906131cb565b610f69565b60405161050d9190612ed8565b60405180910390f35b610530600480360381019061052b9190613232565b61101c565b005b61054c60048036038101906105479190612f24565b6110c8565b6040516105599190612ed8565b60405180910390f35b61056a6110dc565b60405161057791906130bc565b60405180910390f35b6105886110f3565b604051610595919061326e565b60405180910390f35b6105b860048036038101906105b391906131cb565b611107565b6040516105c591906130bc565b60405180910390f35b6105d6611127565b6040516105e391906131b0565b60405180910390f35b61060660048036038101906106019190613289565b61114d565b6040516106139190612ed8565b60405180910390f35b610636600480360381019061063191906131cb565b611209565b6040516106439190612ed8565b60405180910390f35b610654611251565b005b61065e611265565b005b61067a60048036038101906106759190612f24565b611277565b005b6106846112ca565b6040516106919190612ed8565b60405180910390f35b6106a26112d0565b6040516106af91906131b0565b60405180910390f35b6106d260048036038101906106cd9190612f24565b6112fa565b005b6106ee60048036038101906106e99190613289565b61134d565b6040516106fb9190612ed8565b60405180910390f35b61070c611417565b6040516107199190612fe1565b60405180910390f35b61073c60048036038101906107379190613061565b6114a9565b60405161074991906130bc565b60405180910390f35b61076c60048036038101906107679190612f24565b6114cc565b6040516107799190612ed8565b60405180910390f35b61079c600480360381019061079791906132c9565b6114e0565b6040516107a99190612ed8565b60405180910390f35b6107cc60048036038101906107c791906132c9565b611506565b6040516107d99190612ed8565b60405180910390f35b6107fc60048036038101906107f79190613352565b61152c565b005b610818600480360381019061081391906131cb565b6116c7565b6040516108259190612ed8565b60405180910390f35b61084860048036038101906108439190612f24565b6116e6565b6040516108559190612ed8565b60405180910390f35b610878600480360381019061087391906131cb565b6116fa565b6040516108859190612ed8565b60405180910390f35b6108a860048036038101906108a391906133ab565b611716565b005b6108c460048036038101906108bf91906131cb565b6117c7565b6040516108d19190612ed8565b60405180910390f35b6108e26117d9565b6040516108ef9190612ed8565b60405180910390f35b6109006117df565b60405161090d9190612ed8565b60405180910390f35b610930600480360381019061092b91906130d7565b6117e5565b60405161093d9190612ed8565b60405180910390f35b610960600480360381019061095b9190612f24565b61186c565b005b61096a6118b5565b6040516109779190612ed8565b60405180910390f35b61098861193d565b6040516109959190612ed8565b60405180910390f35b6109b860048036038101906109b39190612f24565b611943565b6040516109c59190612ed8565b60405180910390f35b6109e860048036038101906109e391906131cb565b611969565b005b610a0460048036038101906109ff9190612f24565b6119ef565b005b6000600d54610a13610f09565b73ffffffffffffffffffffffffffffffffffffffff166370a08231306040518263ffffffff1660e01b8152600401610a4b91906131b0565b602060405180830381865afa158015610a68573d6000803e3d6000fd5b505050506040513d601f19601f82011682018060405250810190610a8c9190613400565b610a96919061345c565b905090565b610aa3611d98565b60006009549050816009819055507fafb7e08f626725a8484f2309d137603927effd76fb01c928391646feaeaf85538183604051610ae2929190613490565b60405180910390a15050565b606060038054610afd906134e8565b80601f0160208091040260200160405190810160405280929190818152602001828054610b29906134e8565b8015610b765780601f10610b4b57610100808354040283529160200191610b76565b820191906000526020600020905b815481529060010190602001808311610b5957829003601f168201915b5050505050905090565b6000610b8d826000611e1f565b9050919050565b600080610b9f611e78565b9050610bac818585611e80565b600191505092915050565b6000610bc4826001611e92565b9050919050565b610bd3611d98565b600073ffffffffffffffffffffffffffffffffffffffff168273ffffffffffffffffffffffffffffffffffffffff1614158015610c3d5750600073ffffffffffffffffffffffffffffffffffffffff168173ffffffffffffffffffffffffffffffffffffffff1614155b610c7c576040517f08c379a0000000000000000000000000000000000000000000000000000000008152600401610c7390613565565b60405180910390fd5b81600a60006101000a81548173ffffffffffffffffffffffffffffffffffffffff021916908373ffffffffffffffffffffffffffffffffffffffff16021790555080600b60006101000a81548173ffffffffffffffffffffffffffffffffffffffff021916908373ffffffffffffffffffffffffffffffffffffffff1602179055507fb46243848fd4cfcaa63343d3207d276896a2fb784a5bba9c37f737170bf5fe428282604051610d2f929190613585565b60405180910390a15050565b6000600254905090565b610d4d611d98565b610d55610f09565b73ffffffffffffffffffffffffffffffffffffffff168373ffffffffffffffffffffffffffffffffffffffff1603610dc2576040517f08c379a0000000000000000000000000000000000000000000000000000000008152600401610db9906135fa565b60405180910390fd5b610ded82828573ffffffffffffffffffffffffffffffffffffffff16611eeb9092919063ffffffff16565b8173ffffffffffffffffffffffffffffffffffffffff168373ffffffffffffffffffffffffffffffffffffffff167f3af790fafda720819b2fc6e15090606e81154e0ac9a92d38ecad006d99d20ecc83604051610e4a9190612ed8565b60405180910390a3505050565b600080610e62611e78565b9050610e6f858285611f6a565b610e7a858585611fff565b60019150509392505050565b600c5481565b6000610e96610f09565b73ffffffffffffffffffffffffffffffffffffffff1663313ce5676040518163ffffffff1660e01b8152600401602060405180830381865afa158015610ee0573d6000803e3d6000fd5b505050506040513d601f19601f82011682018060405250810190610f049190613646565b905090565b60007f0000000000000000000000000000000000000000000000000000000000000000905090565b600b60009054906101000a900473ffffffffffffffffffffffffffffffffffffffff1681565b610f5f611d98565b610f676120f3565b565b6000610f736110dc565b15610f815760009050611017565b6000610f8b610a06565b90506000600754821015610fac5781600754610fa79190613673565b610faf565b60005b9050600060095403610fc5578092505050611017565b6000610fd8610fd386611209565b610b80565b90506009548110610fef5760009350505050611017565b600081600954610fff9190613673565b905082811061100e5782611010565b805b9450505050505b919050565b611024611d98565b61271061ffff168161ffff161115611071576040517f08c379a0000000000000000000000000000000000000000000000000000000008152600401611068906136f3565b60405180910390fd5b80600b60146101000a81548161ffff021916908361ffff1602179055507f96bcd82a7097a1ecf42e848d65159d42bbe6abd8e499e0eeb8d21b795ab2b36e816040516110bd919061326e565b60405180910390a150565b60006110d5826000611e1f565b9050919050565b6000600560149054906101000a900460ff16905090565b600b60149054906101000a900461ffff1681565b600e6020528060005260406000206000915054906101000a900460ff1681565b600a60009054906101000a900473ffffffffffffffffffffffffffffffffffffffff1681565b6000611157612156565b61115f612197565b6008548310156111a4576040517f08c379a000000000000000000000000000000000000000000000000000000000815260040161119b9061375f565b60405180910390fd5b6111ad82610f69565b8311156111ef576040517f08c379a00000000000000000000000000000000000000000000000000000000081526004016111e6906137cb565b60405180910390fd5b6111f983836121dd565b905061120361225f565b92915050565b60008060008373ffffffffffffffffffffffffffffffffffffffff1673ffffffffffffffffffffffffffffffffffffffff168152602001908152602001600020549050919050565b611259611d98565b6112636000612269565b565b61126d611d98565b61127561232f565b565b61127f611d98565b60006007549050816007819055507ffbe912fdd0185617e8cafd12d97b59175b90e15f5c629faf6413469af54ee08081836040516112be929190613490565b60405180910390a15050565b60095481565b6000600560009054906101000a900473ffffffffffffffffffffffffffffffffffffffff16905090565b611302611d98565b60006008549050816008819055507f0dcdbc9335d5a201f9468fb9834fe45d13a7ab04a01d25490ecc17d60c907a5d8183604051611341929190613490565b60405180910390a15050565b6000611357612156565b61135f612197565b600061136a846114cc565b90506008548110156113b1576040517f08c379a00000000000000000000000000000000000000000000000000000000081526004016113a89061375f565b60405180910390fd5b6113ba83610f69565b8111156113fc576040517f08c379a00000000000000000000000000000000000000000000000000000000081526004016113f3906137cb565b60405180910390fd5b6114068484612392565b91505061141161225f565b92915050565b606060048054611426906134e8565b80601f0160208091040260200160405190810160405280929190818152602001828054611452906134e8565b801561149f5780601f106114745761010080835404028352916020019161149f565b820191906000526020600020905b81548152906001019060200180831161148257829003601f168201915b5050505050905090565b6000806114b4611e78565b90506114c1818585611fff565b600191505092915050565b60006114d9826001611e1f565b9050919050565b60006114ea612197565b6114f5848484612414565b90506114ff61225f565b9392505050565b6000611510612197565b61151b848484612498565b905061152561225f565b9392505050565b600e60003373ffffffffffffffffffffffffffffffffffffffff1673ffffffffffffffffffffffffffffffffffffffff16815260200190815260200160002060009054906101000a900460ff16806115b657506115876112d0565b73ffffffffffffffffffffffffffffffffffffffff163373ffffffffffffffffffffffffffffffffffffffff16145b6115f5576040517f08c379a00000000000000000000000000000000000000000000000000000000081526004016115ec90613837565b60405180910390fd5b6000811261161b5780600d600082825461160f919061345c565b92505081905550611689565b60008161162790613857565b9050600d5481111561166e576040517f08c379a0000000000000000000000000000000000000000000000000000000008152600401611665906138eb565b60405180910390fd5b80600d60008282546116809190613673565b92505081905550505b7ff9a5820777e0a33afd36484cd725aec5e42b74ae960a954fa9cd6b4b3bb2fc2381600d546040516116bc92919061391a565b60405180910390a150565b6000806116d383610f69565b90506116de816116e6565b915050919050565b60006116f3826000611e92565b9050919050565b600061170f61170883611209565b6000611e1f565b9050919050565b61171e611d98565b80600e60008473ffffffffffffffffffffffffffffffffffffffff1673ffffffffffffffffffffffffffffffffffffffff16815260200190815260200160002060006101000a81548160ff0219169083151502179055508173ffffffffffffffffffffffffffffffffffffffff167f8dd62d4e1f60b96148552898e743aa2b571686baa26f4f1b647565dc3996c1a7826040516117bb91906130bc565b60405180910390a25050565b60006117d282611209565b9050919050565b600d5481565b60075481565b6000600160008473ffffffffffffffffffffffffffffffffffffffff1673ffffffffffffffffffffffffffffffffffffffff16815260200190815260200160002060008373ffffffffffffffffffffffffffffffffffffffff1673ffffffffffffffffffffffffffffffffffffffff16815260200190815260200160002054905092915050565b611874611d98565b80600c819055507f172986b16dc05e54bbccfebe40aa3108d009f459e905c48f287dcc2d83e3791a816040516118aa9190612ed8565b60405180910390a150565b60006118bf610f09565b73ffffffffffffffffffffffffffffffffffffffff166370a08231306040518263ffffffff1660e01b81526004016118f791906131b0565b602060405180830381865afa158015611914573d6000803e3d6000fd5b505050506040513d601f19601f820116820180604052508101906119389190613400565b905090565b60085481565b60006008548210156119585760009050611964565b6119618261251c565b90505b919050565b611971611d98565b600073ffffffffffffffffffffffffffffffffffffffff168173ffffffffffffffffffffffffffffffffffffffff16036119e35760006040517f1e4fbdf70000000000000000000000000000000000000000000000000000000081526004016119da91906131b0565b60405180910390fd5b6119ec81612269565b50565b6119f7612156565b6119ff612197565b600e60003373ffffffffffffffffffffffffffffffffffffffff1673ffffffffffffffffffffffffffffffffffffffff16815260200190815260200160002060009054906101000a900460ff1680611a895750611a5a6112d0565b73ffffffffffffffffffffffffffffffffffffffff163373ffffffffffffffffffffffffffffffffffffffff16145b611ac8576040517f08c379a0000000000000000000000000000000000000000000000000000000008152600401611abf90613837565b60405180910390fd5b600073ffffffffffffffffffffffffffffffffffffffff16600a60009054906101000a900473ffffffffffffffffffffffffffffffffffffffff1673ffffffffffffffffffffffffffffffffffffffff1614158015611b765750600073ffffffffffffffffffffffffffffffffffffffff16600b60009054906101000a900473ffffffffffffffffffffffffffffffffffffffff1673ffffffffffffffffffffffffffffffffffffffff1614155b611bb5576040517f08c379a0000000000000000000000000000000000000000000000000000000008152600401611bac9061398f565b60405180910390fd5b600c54811015611bfa576040517f08c379a0000000000000000000000000000000000000000000000000000000008152600401611bf1906139fb565b60405180910390fd5b6000611c046118b5565b905080821115611c49576040517f08c379a0000000000000000000000000000000000000000000000000000000008152600401611c4090613a67565b60405180910390fd5b600061271061ffff16600b60149054906101000a900461ffff1661ffff1684611c729190613a87565b611c7c9190613af8565b905060008184611c8c9190613673565b9050611ce2600a60009054906101000a900473ffffffffffffffffffffffffffffffffffffffff1683611cbd610f09565b73ffffffffffffffffffffffffffffffffffffffff16611eeb9092919063ffffffff16565b611d36600b60009054906101000a900473ffffffffffffffffffffffffffffffffffffffff1682611d11610f09565b73ffffffffffffffffffffffffffffffffffffffff16611eeb9092919063ffffffff16565b83600d6000828254611d48919061345c565b925050819055507f83387a3342ff1ebc5e437dc9ae0f98274afda12a11cf547eebec05a3e0b8f8a7848383604051611d8293929190613b29565b60405180910390a1505050611d9561225f565b50565b611da0611e78565b73ffffffffffffffffffffffffffffffffffffffff16611dbe6112d0565b73ffffffffffffffffffffffffffffffffffffffff1614611e1d57611de1611e78565b6040517f118cdaa7000000000000000000000000000000000000000000000000000000008152600401611e1491906131b0565b60405180910390fd5b565b6000611e706001611e2e610a06565b611e38919061345c565b611e40612530565b600a611e4c9190613c93565b611e54610d3b565b611e5e919061345c565b8486612535909392919063ffffffff16565b905092915050565b600033905090565b611e8d8383836001612584565b505050565b6000611ee3611e9f612530565b600a611eab9190613c93565b611eb3610d3b565b611ebd919061345c565b6001611ec7610a06565b611ed1919061345c565b8486612535909392919063ffffffff16565b905092915050565b611f65838473ffffffffffffffffffffffffffffffffffffffff1663a9059cbb8585604051602401611f1e929190613cde565b604051602081830303815290604052915060e01b6020820180517bffffffffffffffffffffffffffffffffffffffffffffffffffffffff838183161783525050505061275b565b505050565b6000611f7684846117e5565b90507fffffffffffffffffffffffffffffffffffffffffffffffffffffffffffffffff811015611ff95781811015611fe9578281836040517ffb8f41b2000000000000000000000000000000000000000000000000000000008152600401611fe093929190613d07565b60405180910390fd5b611ff884848484036000612584565b5b50505050565b600073ffffffffffffffffffffffffffffffffffffffff168373ffffffffffffffffffffffffffffffffffffffff16036120715760006040517f96c6fd1e00000000000000000000000000000000000000000000000000000000815260040161206891906131b0565b60405180910390fd5b600073ffffffffffffffffffffffffffffffffffffffff168273ffffffffffffffffffffffffffffffffffffffff16036120e35760006040517fec442f050000000000000000000000000000000000000000000000000000000081526004016120da91906131b0565b60405180910390fd5b6120ee8383836127fd565b505050565b6120fb612a22565b6000600560146101000a81548160ff0219169083151502179055507f5db9ee0a495bf2e6ff9c91a7834c1ba4fdd244a5e8aa4e537bd38aeae4b073aa61213f611e78565b60405161214c91906131b0565b60405180910390a1565b61215e6110dc565b15612195576040517fd93c066500000000000000000000000000000000000000000000000000000000815260040160405180910390fd5b565b6002600654036121d3576040517f3ee5aeb500000000000000000000000000000000000000000000000000000000815260040160405180910390fd5b6002600681905550565b6000806121e983610f69565b905080841115612234578284826040517f79012fb200000000000000000000000000000000000000000000000000000000815260040161222b93929190613d07565b60405180910390fd5b600061223f85611943565b905061225461224c611e78565b858784612a62565b809250505092915050565b6001600681905550565b6000600560009054906101000a900473ffffffffffffffffffffffffffffffffffffffff16905081600560006101000a81548173ffffffffffffffffffffffffffffffffffffffff021916908373ffffffffffffffffffffffffffffffffffffffff1602179055508173ffffffffffffffffffffffffffffffffffffffff168173ffffffffffffffffffffffffffffffffffffffff167f8be0079c531659141344cd1fd0a4f28419497f9722a3daafe3b4186f6b6457e060405160405180910390a35050565b612337612156565b6001600560146101000a81548160ff0219169083151502179055507f62e78cea01bee320cd4e420270b5ea74000d11b0c9f74754ebdbfc544b05a25861237b611e78565b60405161238891906131b0565b60405180910390a1565b60008061239e836116c7565b9050808411156123e9578284826040517f284ff6670000000000000000000000000000000000000000000000000000000081526004016123e093929190613d07565b60405180910390fd5b60006123f4856114cc565b9050612409612401611e78565b858388612a62565b809250505092915050565b600080612420836116fa565b90508085111561246b578285826040517ffe9cceec00000000000000000000000000000000000000000000000000000000815260040161246293929190613d07565b60405180910390fd5b600061247686610bb7565b905061248c612483611e78565b86868985612aec565b80925050509392505050565b6000806124a4836117c7565b9050808511156124ef578285826040517fb94abeec0000000000000000000000000000000000000000000000000000000081526004016124e693929190613d07565b60405180910390fd5b60006124fa866110c8565b9050612510612507611e78565b8686848a612aec565b80925050509392505050565b6000612529826000611e92565b9050919050565b600090565b600061256561254383612bcc565b801561256057506000848061255b5761255a613ac9565b5b868809115b612bfa565b612570868686612c06565b61257a919061345c565b9050949350505050565b600073ffffffffffffffffffffffffffffffffffffffff168473ffffffffffffffffffffffffffffffffffffffff16036125f65760006040517fe602df050000000000000000000000000000000000000000000000000000000081526004016125ed91906131b0565b60405180910390fd5b600073ffffffffffffffffffffffffffffffffffffffff168373ffffffffffffffffffffffffffffffffffffffff16036126685760006040517f94280d6200000000000000000000000000000000000000000000000000000000815260040161265f91906131b0565b60405180910390fd5b81600160008673ffffffffffffffffffffffffffffffffffffffff1673ffffffffffffffffffffffffffffffffffffffff16815260200190815260200160002060008573ffffffffffffffffffffffffffffffffffffffff1673ffffffffffffffffffffffffffffffffffffffff168152602001908152602001600020819055508015612755578273ffffffffffffffffffffffffffffffffffffffff168473ffffffffffffffffffffffffffffffffffffffff167f8c5be1e5ebec7d5bd14f71427d1e84f3dd0314c0f7b2291e5b200ac8c7c3b9258460405161274c9190612ed8565b60405180910390a35b50505050565b600080602060008451602086016000885af18061277e576040513d6000823e3d81fd5b3d9250600051915050600082146127995760018114156127b5565b60008473ffffffffffffffffffffffffffffffffffffffff163b145b156127f757836040517f5274afe70000000000000000000000000000000000000000000000000000000081526004016127ee91906131b0565b60405180910390fd5b50505050565b600073ffffffffffffffffffffffffffffffffffffffff168373ffffffffffffffffffffffffffffffffffffffff160361284f578060026000828254612843919061345c565b92505081905550612922565b60008060008573ffffffffffffffffffffffffffffffffffffffff1673ffffffffffffffffffffffffffffffffffffffff168152602001908152602001600020549050818110156128db578381836040517fe450d38c0000000000000000000000000000000000000000000000000000000081526004016128d293929190613d07565b60405180910390fd5b8181036000808673ffffffffffffffffffffffffffffffffffffffff1673ffffffffffffffffffffffffffffffffffffffff16815260200190815260200160002081905550505b600073ffffffffffffffffffffffffffffffffffffffff168273ffffffffffffffffffffffffffffffffffffffff160361296b57806002600082825403925050819055506129b8565b806000808473ffffffffffffffffffffffffffffffffffffffff1673ffffffffffffffffffffffffffffffffffffffff168152602001908152602001600020600082825401925050819055505b8173ffffffffffffffffffffffffffffffffffffffff168373ffffffffffffffffffffffffffffffffffffffff167fddf252ad1be2c89b69c2b068fc378daa952ba7f163c4a11628f55a4df523b3ef83604051612a159190612ed8565b60405180910390a3505050565b612a2a6110dc565b612a60576040517f8dfc202b00000000000000000000000000000000000000000000000000000000815260040160405180910390fd5b565b612a75612a6d610f09565b853085612cee565b612a7f8382612d70565b8273ffffffffffffffffffffffffffffffffffffffff168473ffffffffffffffffffffffffffffffffffffffff167fdcbc1c05240f31ff3ad067ef1ee35ce4997762752e3a095284754544f4c709d78484604051612ade929190613490565b60405180910390a350505050565b8273ffffffffffffffffffffffffffffffffffffffff168573ffffffffffffffffffffffffffffffffffffffff1614612b2b57612b2a838683611f6a565b5b612b358382612df2565b612b47612b40610f09565b8584611eeb565b8273ffffffffffffffffffffffffffffffffffffffff168473ffffffffffffffffffffffffffffffffffffffff168673ffffffffffffffffffffffffffffffffffffffff167ffbde797d201c681b91056529119e0b02407c7bb96a4a2c75c01fc9667232c8db8585604051612bbd929190613490565b60405180910390a45050505050565b600060016002836003811115612be557612be4613d3e565b5b612bef9190613d6d565b60ff16149050919050565b60008115159050919050565b6000806000612c158686612e74565b9150915060008203612c3b57838181612c3157612c30613ac9565b5b0492505050612ce7565b818411612c5b57612c5a612c556000861460126011612e93565b612ead565b5b600084868809905081811183039250808203915060008560000386169050808604955080830492506001818260000304019050808402831792506000600287600302189050808702600203810290508087026002038102905080870260020381029050808702600203810290508087026002038102905080870260020381029050808402955050505050505b9392505050565b612d6a848573ffffffffffffffffffffffffffffffffffffffff166323b872dd868686604051602401612d2393929190613d9e565b604051602081830303815290604052915060e01b6020820180517bffffffffffffffffffffffffffffffffffffffffffffffffffffffff838183161783525050505061275b565b50505050565b600073ffffffffffffffffffffffffffffffffffffffff168273ffffffffffffffffffffffffffffffffffffffff1603612de25760006040517fec442f05000000000000000000000000000000000000000000000000000000008152600401612dd991906131b0565b60405180910390fd5b612dee600083836127fd565b5050565b600073ffffffffffffffffffffffffffffffffffffffff168273ffffffffffffffffffffffffffffffffffffffff1603612e645760006040517f96c6fd1e000000000000000000000000000000000000000000000000000000008152600401612e5b91906131b0565b60405180910390fd5b612e70826000836127fd565b5050565b6000806000198385098385029150818110828203039250509250929050565b6000612e9e84612bfa565b82841802821890509392505050565b634e487b71600052806020526024601cfd5b6000819050919050565b612ed281612ebf565b82525050565b6000602082019050612eed6000830184612ec9565b92915050565b600080fd5b612f0181612ebf565b8114612f0c57600080fd5b50565b600081359050612f1e81612ef8565b92915050565b600060208284031215612f3a57612f39612ef3565b5b6000612f4884828501612f0f565b91505092915050565b600081519050919050565b600082825260208201905092915050565b60005b83811015612f8b578082015181840152602081019050612f70565b60008484015250505050565b6000601f19601f8301169050919050565b6000612fb382612f51565b612fbd8185612f5c565b9350612fcd818560208601612f6d565b612fd681612f97565b840191505092915050565b60006020820190508181036000830152612ffb8184612fa8565b905092915050565b600073ffffffffffffffffffffffffffffffffffffffff82169050919050565b600061302e82613003565b9050919050565b61303e81613023565b811461304957600080fd5b50565b60008135905061305b81613035565b92915050565b6000806040838503121561307857613077612ef3565b5b60006130868582860161304c565b925050602061309785828601612f0f565b9150509250929050565b60008115159050919050565b6130b6816130a1565b82525050565b60006020820190506130d160008301846130ad565b92915050565b600080604083850312156130ee576130ed612ef3565b5b60006130fc8582860161304c565b925050602061310d8582860161304c565b9150509250929050565b6000806000606084860312156131305761312f612ef3565b5b600061313e8682870161304c565b935050602061314f8682870161304c565b925050604061316086828701612f0f565b9150509250925092565b600060ff82169050919050565b6131808161316a565b82525050565b600060208201905061319b6000830184613177565b92915050565b6131aa81613023565b82525050565b60006020820190506131c560008301846131a1565b92915050565b6000602082840312156131e1576131e0612ef3565b5b60006131ef8482850161304c565b91505092915050565b600061ffff82169050919050565b61320f816131f8565b811461321a57600080fd5b50565b60008135905061322c81613206565b92915050565b60006020828403121561324857613247612ef3565b5b60006132568482850161321d565b91505092915050565b613268816131f8565b82525050565b6000602082019050613283600083018461325f565b92915050565b600080604083850312156132a05761329f612ef3565b5b60006132ae85828601612f0f565b92505060206132bf8582860161304c565b9150509250929050565b6000806000606084860312156132e2576132e1612ef3565b5b60006132f086828701612f0f565b93505060206133018682870161304c565b92505060406133128682870161304c565b9150509250925092565b6000819050919050565b61332f8161331c565b811461333a57600080fd5b50565b60008135905061334c81613326565b92915050565b60006020828403121561336857613367612ef3565b5b60006133768482850161333d565b91505092915050565b613388816130a1565b811461339357600080fd5b50565b6000813590506133a58161337f565b92915050565b600080604083850312156133c2576133c1612ef3565b5b60006133d08582860161304c565b92505060206133e185828601613396565b9150509250929050565b6000815190506133fa81612ef8565b92915050565b60006020828403121561341657613415612ef3565b5b6000613424848285016133eb565b91505092915050565b7f4e487b7100000000000000000000000000000000000000000000000000000000600052601160045260246000fd5b600061346782612ebf565b915061347283612ebf565b925082820190508082111561348a5761348961342d565b5b92915050565b60006040820190506134a56000830185612ec9565b6134b26020830184612ec9565b9392505050565b7f4e487b7100000000000000000000000000000000000000000000000000000000600052602260045260246000fd5b6000600282049050600182168061350057607f821691505b602082108103613513576135126134b9565b5b50919050565b7f7a65726f20726563697069656e74000000000000000000000000000000000000600082015250565b600061354f600e83612f5c565b915061355a82613519565b602082019050919050565b6000602082019050818103600083015261357e81613542565b9050919050565b600060408201905061359a60008301856131a1565b6135a760208301846131a1565b9392505050565b7f63616e6e6f742072657363756520617373657400000000000000000000000000600082015250565b60006135e4601383612f5c565b91506135ef826135ae565b602082019050919050565b60006020820190508181036000830152613613816135d7565b9050919050565b6136238161316a565b811461362e57600080fd5b50565b6000815190506136408161361a565b92915050565b60006020828403121561365c5761365b612ef3565b5b600061366a84828501613631565b91505092915050565b600061367e82612ebf565b915061368983612ebf565b92508282039050818111156136a1576136a061342d565b5b92915050565b7f73706c6974203e20313030250000000000000000000000000000000000000000600082015250565b60006136dd600c83612f5c565b91506136e8826136a7565b602082019050919050565b6000602082019050818103600083015261370c816136d0565b9050919050565b7f6465706f7369742062656c6f77206d696e696d756d0000000000000000000000600082015250565b6000613749601583612f5c565b915061375482613713565b602082019050919050565b600060208201905081810360008301526137788161373c565b9050919050565b7f6578636565647320636170000000000000000000000000000000000000000000600082015250565b60006137b5600b83612f5c565b91506137c08261377f565b602082019050919050565b600060208201905081810360008301526137e4816137a8565b9050919050565b7f6e6f74206b65657065722f6f776e657200000000000000000000000000000000600082015250565b6000613821601083612f5c565b915061382c826137eb565b602082019050919050565b6000602082019050818103600083015261385081613814565b9050919050565b60006138628261331c565b91507f800000000000000000000000000000000000000000000000000000000000000082036138945761389361342d565b5b816000039050919050565b7f6e617620756e646572666c6f7700000000000000000000000000000000000000600082015250565b60006138d5600d83612f5c565b91506138e08261389f565b602082019050919050565b60006020820190508181036000830152613904816138c8565b9050919050565b6139148161331c565b82525050565b600060408201905061392f600083018561390b565b61393c6020830184612ec9565b9392505050565b7f726563697069656e7473206e6f74207365740000000000000000000000000000600082015250565b6000613979601283612f5c565b915061398482613943565b602082019050919050565b600060208201905081810360008301526139a88161396c565b9050919050565b7f62656c6f77207468726573686f6c640000000000000000000000000000000000600082015250565b60006139e5600f83612f5c565b91506139f0826139af565b602082019050919050565b60006020820190508181036000830152613a14816139d8565b9050919050565b7f696e73756666696369656e742069646c65000000000000000000000000000000600082015250565b6000613a51601183612f5c565b9150613a5c82613a1b565b602082019050919050565b60006020820190508181036000830152613a8081613a44565b9050919050565b6000613a9282612ebf565b9150613a9d83612ebf565b9250828202613aab81612ebf565b91508282048414831517613ac257613ac161342d565b5b5092915050565b7f4e487b7100000000000000000000000000000000000000000000000000000000600052601260045260246000fd5b6000613b0382612ebf565b9150613b0e83612ebf565b925082613b1e57613b1d613ac9565b5b828204905092915050565b6000606082019050613b3e6000830186612ec9565b613b4b6020830185612ec9565b613b586040830184612ec9565b949350505050565b60008160011c9050919050565b6000808291508390505b6001851115613bb757808604811115613b9357613b9261342d565b5b6001851615613ba25780820291505b8081029050613bb085613b60565b9450613b77565b94509492505050565b600082613bd05760019050613c8c565b81613bde5760009050613c8c565b8160018114613bf45760028114613bfe57613c2d565b6001915050613c8c565b60ff841115613c1057613c0f61342d565b5b8360020a915084821115613c2757613c2661342d565b5b50613c8c565b5060208310610133831016604e8410600b8410161715613c625782820a905083811115613c5d57613c5c61342d565b5b613c8c565b613c6f8484846001613b6d565b92509050818404811115613c8657613c8561342d565b5b81810290505b9392505050565b6000613c9e82612ebf565b9150613ca98361316a565b9250613cd67fffffffffffffffffffffffffffffffffffffffffffffffffffffffffffffffff8484613bc0565b905092915050565b6000604082019050613cf360008301856131a1565b613d006020830184612ec9565b9392505050565b6000606082019050613d1c60008301866131a1565b613d296020830185612ec9565b613d366040830184612ec9565b949350505050565b7f4e487b7100000000000000000000000000000000000000000000000000000000600052602160045260246000fd5b6000613d788261316a565b9150613d838361316a565b925082613d9357613d92613ac9565b5b828206905092915050565b6000606082019050613db360008301866131a1565b613dc060208301856131a1565b613dcd6040830184612ec9565b94935050505056fea2646970667358221220d54d08cd0dfd59416c05979a07255e18a627b60096d42de6a93397251ee4394c64736f6c63430008180033",
  "linkReferences": {},
  "deployedLinkReferences": {}
}