{
  "_format": "hh-sol-artifact-1",
  "contractName": "Vault",
  "sourceName": "contracts/Vault.sol",
  "abi": [
    {
      "inputs": [
        {
          "internalType": "address",
          "name": "_wbtc",
          "type": "address"
        },
        {
          "internalType": "address",
          "name": "_owner",
          "type": "address"
        }
      ],
      "stateMutability": "nonpayable",
      "type": "constructor"
    },
    {
      "inputs": [
        {
          "internalType": "address",
          "name": "spender",
          "type": "address"
        },
        {
          "internalType": "uint256",
          "name": "allowance",
          "type": "uint256"
        },
        {
          "internalType": "uint256",
          "name": "needed",
          "type": "uint256"
        }
      ],
      "name": "ERC20InsufficientAllowance",
      "type": "error"
    },
    {
      "inputs": [
        {
          "internalType": "address",
          "name": "sender",
          "type": "address"
        },
        {
          "internalType": "uint256",
          "name": "balance",
          "type": "uint256"
        },
        {
          "internalType": "uint256",
          "name": "needed",
          "type": "uint256"
        }
      ],
      "name": "ERC20InsufficientBalance",
      "type": "error"
    },
    {
      "inputs": [
        {
          "internalType": "address",
          "name": "approver",
          "type": "address"
        }
      ],
      "name": "ERC20InvalidApprover",
      "type": "error"
    },
    {
      "inputs": [
        {
          "internalType": "address",
          "name": "receiver",
          "type": "address"
        }
      ],
      "name": "ERC20InvalidReceiver",
      "type": "error"
    },
    {
      "inputs": [
        {
          "internalType": "address",
          "name": "sender",
          "type": "address"
        }
      ],
      "name": "ERC20InvalidSender",
      "type": "error"
    },
    {
      "inputs": [
        {
          "internalType": "address",
          "name": "spender",
          "type": "address"
        }
      ],
      "name": "ERC20InvalidSpender",
      "type": "error"
    },
    {
      "inputs": [
        {
          "internalType": "address",
          "name": "receiver",
          "type": "address"
        },
        {
          "internalType": "uint256",
          "name": "assets",
          "type": "uint256"
        },
        {
          "internalType": "uint256",
          "name": "max",
          "type": "uint256"
        }
      ],
      "name": "ERC4626ExceededMaxDeposit",
      "type": "error"
    },
    {
      "inputs": [
        {
          "internalType": "address",
          "name": "receiver",
          "type": "address"
        },
        {
          "internalType": "uint256",
          "name": "shares",
          "type": "uint256"
        },
        {
          "internalType": "uint256",
          "name": "max",
          "type": "uint256"
        }
      ],
      "name": "ERC4626ExceededMaxMint",
      "type": "error"
    },
    {
      "inputs": [
        {
          "internalType": "address",
          "name": "owner",
          "type": "address"
        },
        {
          "internalType": "uint256",
          "name": "shares",
          "type": "uint256"
        },
        {
          "internalType": "uint256",
          "name": "max",
          "type": "uint256"
        }
      ],
      "name": "ERC4626ExceededMaxRedeem",
      "type": "error"
    },
    {
      "inputs": [
        {
          "internalType": "address",
          "name": "owner",
          "type": "address"
        },
        {
          "internalType": "uint256",
          "name": "assets",
          "type": "uint256"
        },
        {
          "internalType": "uint256",
          "name": "max",
          "type": "uint256"
        }
      ],
      "name": "ERC4626ExceededMaxWithdraw",
      "type": "error"
    },
    {
      "inputs": [],
      "name": "EnforcedPause",
      "type": "error"
    },
    {
      "inputs": [],
      "name": "ExpectedPause",
      "type": "error"
    },
    {
      "inputs": [
        {
          "internalType": "address",
          "name": "owner",
          "type": "address"
        }
      ],
      "name": "OwnableInvalidOwner",
      "type": "error"
    },
    {
      "inputs": [
        {
          "internalType": "address",
          "name": "account",
          "type": "address"
        }
      ],
      "name": "OwnableUnauthorizedAccount",
      "type": "error"
    },
    {
      "inputs": [],
      "name": "ReentrancyGuardReentrantCall",
      "type": "error"
    },
    {
      "inputs": [
        {
          "internalType": "address",
          "name": "token",
          "type": "address"
        }
      ],
      "name": "SafeERC20FailedOperation",
      "type": "error"
    },
    {
      "anonymous": false,
      "inputs": [
        {
          "indexed": true,
          "internalType": "address",
          "name": "owner",
          "type": "address"
        },
        {
          "indexed": true,
          "internalType": "address",
          "name": "spender",
          "type": "address"
        },
        {
          "indexed": false,
          "internalType": "uint256",
          "name": "value",
          "type": "uint256"
        }
      ],
      "name": "Approval",
      "type": "event"
    },
    {
      "anonymous": false,
      "inputs": [
        {
          "indexed": true,
          "internalType": "address",
          "name": "sender",
          "type": "address"
        },
        {
          "indexed": true,
          "internalType": "address",
          "name": "owner",
          "type": "address"
        },
        {
          "indexed": false,
          "internalType": "uint256",
          "name": "assets",
          "type": "uint256"
        },
        {
          "indexed": false,
          "internalType": "uint256",
          "name": "shares",
          "type": "uint256"
        }
      ],
      "name": "Deposit",
      "type": "event"
    },
    {
      "anonymous": false,
      "inputs": [
        {
          "indexed": false,
          "internalType": "uint256",
          "name": "oldCap",
          "type": "uint256"
        },
        {
          "indexed": false,
          "internalType": "uint256",
          "name": "newCap",
          "type": "uint256"
        }
      ],
      "name": "DepositCapUpdated",
      "type": "event"
    },
    {
      "anonymous": false,
      "inputs": [
        {
          "indexed": false,
          "internalType": "uint256",
          "name": "oldMin",
          "type": "uint256"
        },
        {
          "indexed": false,
          "internalType": "uint256",
          "name": "newMin",
          "type": "uint256"
        }
      ],
      "name": "DepositMinUpdated",
      "type": "event"
    },
    {
      "anonymous": false,
      "inputs": [
        {
          "indexed": false,
          "internalType": "uint256",
          "name": "newNav",
          "type": "uint256"
        }
      ],
      "name": "ExternalNavReported",
      "type": "event"
    },
    {
      "anonymous": false,
      "inputs": [
        {
          "indexed": true,
          "internalType": "address",
          "name": "previousOwner",
          "type": "address"
        },
        {
          "indexed": true,
          "internalType": "address",
          "name": "newOwner",
          "type": "address"
        }
      ],
      "name": "OwnershipTransferred",
      "type": "event"
    },
    {
      "anonymous": false,
      "inputs": [
        {
          "indexed": false,
          "internalType": "address",
          "name": "account",
          "type": "address"
        }
      ],
      "name": "Paused",
      "type": "event"
    },
    {
      "anonymous": false,
      "inputs": [
        {
          "indexed": false,
          "internalType": "uint256",
          "name": "oldCap",
          "type": "uint256"
        },
        {
          "indexed": false,
          "internalType": "uint256",
          "name": "newCap",
          "type": "uint256"
        }
      ],
      "name": "PerUserDepositCapUpdated",
      "type": "event"
    },
    {
      "anonymous": false,
      "inputs": [
        {
          "indexed": false,
          "internalType": "uint256",
          "name": "minAmount",
          "type": "uint256"
        }
      ],
      "name": "RebalanceMinUpdated",
      "type": "event"
    },
    {
      "anonymous": false,
      "inputs": [
        {
          "indexed": false,
          "internalType": "uint256",
          "name": "amount",
          "type": "uint256"
        },
        {
          "indexed": false,
          "internalType": "uint256",
          "name": "toA",
          "type": "uint256"
        },
        {
          "indexed": false,
          "internalType": "uint256",
          "name": "toB",
          "type": "uint256"
        }
      ],
      "name": "Rebalanced",
      "type": "event"
    },
    {
      "anonymous": false,
      "inputs": [
        {
          "indexed": false,
          "internalType": "address",
          "name": "recipientA",
          "type": "address"
        },
        {
          "indexed": false,
          "internalType": "address",
          "name": "recipientB",
          "type": "address"
        }
      ],
      "name": "RecipientsUpdated",
      "type": "event"
    },
    {
      "anonymous": false,
      "inputs": [
        {
          "indexed": true,
          "internalType": "address",
          "name": "token",
          "type": "address"
        },
        {
          "indexed": true,
          "internalType": "address",
          "name": "to",
          "type": "address"
        },
        {
          "indexed": false,
          "internalType": "uint256",
          "name": "amount",
          "type": "uint256"
        }
      ],
      "name": "Rescued",
      "type": "event"
    },
    {
      "anonymous": false,
      "inputs": [
        {
          "indexed": false,
          "internalType": "uint16",
          "name": "splitA_BPS",
          "type": "uint16"
        }
      ],
      "name": "SplitUpdated",
      "type": "event"
    },
    {
      "anonymous": false,
      "inputs": [
        {
          "indexed": true,
          "internalType": "address",
          "name": "from",
          "type": "address"
        },
        {
          "indexed": true,
          "internalType": "address",
          "name": "to",
          "type": "address"
        },
        {
          "indexed": false,
          "internalType": "uint256",
          "name": "value",
          "type": "uint256"
        }
      ],
      "name": "Transfer",
      "type": "event"
    },
    {
      "anonymous": false,
      "inputs": [
        {
          "indexed": false,
          "internalType": "address",
          "name": "account",
          "type": "address"
        }
      ],
      "name": "Unpaused",
      "type": "event"
    },
    {
      "anonymous": false,
      "inputs": [
        {
          "indexed": true,
          "internalType": "address",
          "name": "sender",
          "type": "address"
        },
        {
          "indexed": true,
          "internalType": "address",
          "name": "receiver",
          "type": "address"
        },
        {
          "indexed": true,
          "internalType": "address",
          "name": "owner",
          "type": "address"
        },
        {
          "indexed": false,
          "internalType": "uint256",
          "name": "assets",
          "type": "uint256"
        },
        {
          "indexed": false,
          "internalType": "uint256",
          "name": "shares",
          "type": "uint256"
        }
      ],
      "name": "Withdraw",
      "type": "event"
    },
    {
      "inputs": [
        {
          "internalType": "address",
          "name": "owner",
          "type": "address"
        },
        {
          "internalType": "address",
          "name": "spender",
          "type": "address"
        }
      ],
      "name": "allowance",
      "outputs": [
        {
          "internalType": "uint256",
          "name": "",
          "type": "uint256"
        }
      ],
      "stateMutability": "view",
      "type": "function"
    },
    {
      "inputs": [
        {
          "internalType": "address",
          "name": "spender",
          "type": "address"
        },
        {
          "internalType": "uint256",
          "name": "value",
          "type": "uint256"
        }
      ],
      "name": "approve",
      "outputs": [
        {
          "internalType": "bool",
          "name": "",
          "type": "bool"
        }
      ],
      "stateMutability": "nonpayable",
      "type": "function"
    },
    {
      "inputs": [],
      "name": "asset",
      "outputs": [
        {
          "internalType": "address",
          "name": "",
          "type": "address"
        }
      ],
      "stateMutability": "view",
      "type": "function"
    },
    {
      "inputs": [
        {
          "internalType": "address",
          "name": "account",
          "type": "address"
        }
      ],
      "name": "balanceOf",
      "outputs": [
        {
          "internalType": "uint256",
          "name": "",
          "type": "uint256"
        }
      ],
      "stateMutability": "view",
      "type": "function"
    },
    {
      "inputs": [
        {
          "internalType": "uint256",
          "name": "shares",
          "type": "uint256"
        }
      ],
      "name": "convertToAssets",
      "outputs": [
        {
          "internalType": "uint256",
          "name": "",
          "type": "uint256"
        }
      ],
      "stateMutability": "view",
      "type": "function"
    },
    {
      "inputs": [
        {
          "internalType": "uint256",
          "name": "assets",
          "type": "uint256"
        }
      ],
      "name": "convertToShares",
      "outputs": [
        {
          "internalType": "uint256",
          "name": "",
          "type": "uint256"
        }
      ],
      "stateMutability": "view",
      "type": "function"
    },
    {
      "inputs": [],
      "name": "decimals",
      "outputs": [
        {
          "internalType": "uint8",
          "name": "",
          "type": "uint8"
        }
      ],
      "stateMutability": "view",
      "type": "function"
    },
    {
      "inputs": [
        {
          "internalType": "uint256",
          "name": "assets",
          "type": "uint256"
        },
        {
          "internalType": "address",
          "name": "receiver",
          "type": "address"
        }
      ],
      "name": "deposit",
      "outputs": [
        {
          "internalType": "uint256",
          "name": "shares",
          "type": "uint256"
        }
      ],
      "stateMutability": "nonpayable",
      "type": "function"
    },
    {
      "inputs": [],
      "name": "depositCap",
      "outputs": [
        {
          "internalType": "uint256",
          "name": "",
          "type": "uint256"
        }
      ],
      "stateMutability": "view",
      "type": "function"
    },
    {
      "inputs": [],
      "name": "depositMin",
      "outputs": [
        {
          "internalType": "uint256",
          "name": "",
          "type": "uint256"
        }
      ],
      "stateMutability": "view",
      "type": "function"
    },
    {
      "inputs": [],
      "name": "externalNav",
      "outputs": [
        {
          "internalType": "uint256",
          "name": "",
          "type": "uint256"
        }
      ],
      "stateMutability": "view",
      "type": "function"
    },
    {
      "inputs": [],
      "name": "idleAssets",
      "outputs": [
        {
          "internalType": "uint256",
          "name": "",
          "type": "uint256"
        }
      ],
      "stateMutability": "view",
      "type": "function"
    },
    {
      "inputs": [
        {
          "internalType": "address",
          "name": "receiver",
          "type": "address"
        }
      ],
      "name": "maxDeposit",
      "outputs": [
        {
          "internalType": "uint256",
          "name": "",
          "type": "uint256"
        }
      ],
      "stateMutability": "view",
      "type": "function"
    },
    {
      "inputs": [
        {
          "internalType": "address",
          "name": "receiver",
          "type": "address"
        }
      ],
      "name": "maxMint",
      "outputs": [
        {
          "internalType": "uint256",
          "name": "",
          "type": "uint256"
        }
      ],
      "stateMutability": "view",
      "type": "function"
    },
    {
      "inputs": [
        {
          "internalType": "address",
          "name": "owner",
          "type": "address"
        }
      ],
      "name": "maxRedeem",
      "outputs": [
        {
          "internalType": "uint256",
          "name": "",
          "type": "uint256"
        }
      ],
      "stateMutability": "view",
      "type": "function"
    },
    {
      "inputs": [
        {
          "internalType": "address",
          "name": "owner",
          "type": "address"
        }
      ],
      "name": "maxWithdraw",
      "outputs": [
        {
          "internalType": "uint256",
          "name": "",
          "type": "uint256"
        }
      ],
      "stateMutability": "view",
      "type": "function"
    },
    {
      "inputs": [
        {
          "internalType": "uint256",
          "name": "shares",
          "type": "uint256"
        },
        {
          "internalType": "address",
          "name": "receiver",
          "type": "address"
        }
      ],
      "name": "mint",
      "outputs": [
        {
          "internalType": "uint256",
          "name": "assets",
          "type": "uint256"
        }
      ],
      "stateMutability": "nonpayable",
      "type": "function"
    },
    {
      "inputs": [],
      "name": "name",
      "outputs": [
        {
          "internalType": "string",
          "name": "",
          "type": "string"
        }
      ],
      "stateMutability": "view",
      "type": "function"
    },
    {
      "inputs": [],
      "name": "owner",
      "outputs": [
        {
          "internalType": "address",
          "name": "",
          "type": "address"
        }
      ],
      "stateMutability": "view",
      "type": "function"
    },
    {
      "inputs": [],
      "name": "pause",
      "outputs": [],
      "stateMutability": "nonpayable",
      "type": "function"
    },
    {
      "inputs": [],
      "name": "paused",
      "outputs": [
        {
          "internalType": "bool",
          "name": "",
          "type": "bool"
        }
      ],
      "stateMutability": "view",
      "type": "function"
    },
    {
      "inputs": [],
      "name": "perUserDepositCap",
      "outputs": [
        {
          "internalType": "uint256",
          "name": "",
          "type": "uint256"
        }
      ],
      "stateMutability": "view",
      "type": "function"
    },
    {
      "inputs": [
        {
          "internalType": "uint256",
          "name": "assets",
          "type": "uint256"
        }
      ],
      "name": "previewDeposit",
      "outputs": [
        {
          "internalType": "uint256",
          "name": "",
          "type": "uint256"
        }
      ],
      "stateMutability": "view",
      "type": "function"
    },
    {
      "inputs": [
        {
          "internalType": "uint256",
          "name": "shares",
          "type": "uint256"
        }
      ],
      "name": "previewMint",
      "outputs": [
        {
          "internalType": "uint256",
          "name": "",
          "type": "uint256"
        }
      ],
      "stateMutability": "view",
      "type": "function"
    },
    {
      "inputs": [
        {
          "internalType": "uint256",
          "name": "shares",
          "type": "uint256"
        }
      ],
      "name": "previewRedeem",
      "outputs": [
        {
          "internalType": "uint256",
          "name": "",
          "type": "uint256"
        }
      ],
      "stateMutability": "view",
      "type": "function"
    },
    {
      "inputs": [
        {
          "internalType": "uint256",
          "name": "assets",
          "type": "uint256"
        }
      ],
      "name": "previewWithdraw",
      "outputs": [
        {
          "internalType": "uint256",
          "name": "",
          "type": "uint256"
        }
      ],
      "stateMutability": "view",
      "type": "function"
    },
    {
      "inputs": [
        {
          "internalType": "uint256",
          "name": "amount",
          "type": "uint256"
        }
      ],
      "name": "rebalance",
      "outputs": [],
      "stateMutability": "nonpayable",
      "type": "function"
    },
    {
      "inputs": [],
      "name": "rebalanceMin",
      "outputs": [
        {
          "internalType": "uint256",
          "name": "",
          "type": "uint256"
        }
      ],
      "stateMutability": "view",
      "type": "function"
    },
    {
      "inputs": [],
      "name": "recipientA",
      "outputs": [
        {
          "internalType": "address",
          "name": "",
          "type": "address"
        }
      ],
      "stateMutability": "view",
      "type": "function"
    },
    {
      "inputs": [],
      "name": "recipientB",
      "outputs": [
        {
          "internalType": "address",
          "name": "",
          "type": "address"
        }
      ],
      "stateMutability": "view",
      "type": "function"
    },
    {
      "inputs": [
        {
          "internalType": "uint256",
          "name": "shares",
          "type": "uint256"
        },
        {
          "internalType": "address",
          "name": "receiver",
          "type": "address"
        },
        {
          "internalType": "address",
          "name": "owner_",
          "type": "address"
        }
      ],
      "name": "redeem",
      "outputs": [
        {
          "internalType": "uint256",
          "name": "assets",
          "type": "uint256"
        }
      ],
      "stateMutability": "nonpayable",
      "type": "function"
    },
    {
      "inputs": [],
      "name": "renounceOwnership",
      "outputs": [],
      "stateMutability": "nonpayable",
      "type": "function"
    },
    {
      "inputs": [
        {
          "internalType": "uint256",
          "name": "newNav",
          "type": "uint256"
        }
      ],
      "name": "reportExternalNav",
      "outputs": [],
      "stateMutability": "nonpayable",
      "type": "function"
    },
    {
      "inputs": [
        {
          "internalType": "address",
          "name": "token",
          "type": "address"
        },
        {
          "internalType": "address",
          "name": "to",
          "type": "address"
        },
        {
          "internalType": "uint256",
          "name": "amount",
          "type": "uint256"
        }
      ],
      "name": "rescue",
      "outputs": [],
      "stateMutability": "nonpayable",
      "type": "function"
    },
    {
      "inputs": [
        {
          "internalType": "uint256",
          "name": "newCap",
          "type": "uint256"
        }
      ],
      "name": "setDepositCap",
      "outputs": [],
      "stateMutability": "nonpayable",
      "type": "function"
    },
    {
      "inputs": [
        {
          "internalType": "uint256",
          "name": "newMin",
          "type": "uint256"
        }
      ],
      "name": "setDepositMin",
      "outputs": [],
      "stateMutability": "nonpayable",
      "type": "function"
    },
    {
      "inputs": [
        {
          "internalType": "uint256",
          "name": "newCap",
          "type": "uint256"
        }
      ],
      "name": "setPerUserDepositCap",
      "outputs": [],
      "stateMutability": "nonpayable",
      "type": "function"
    },
    {
      "inputs": [
        {
          "internalType": "uint256",
          "name": "minAmount",
          "type": "uint256"
        }
      ],
      "name": "setRebalanceMin",
      "outputs": [],
      "stateMutability": "nonpayable",
      "type": "function"
    },
    {
      "inputs": [
        {
          "internalType": "address",
          "name": "_A",
          "type": "address"
        },
        {
          "internalType": "address",
          "name": "_B",
          "type": "address"
        }
      ],
      "name": "setRecipients",
      "outputs": [],
      "stateMutability": "nonpayable",
      "type": "function"
    },
    {
      "inputs": [
        {
          "internalType": "uint16",
          "name": "_splitA_BPS",
          "type": "uint16"
        }
      ],
      "name": "setSplitBPS",
      "outputs": [],
      "stateMutability": "nonpayable",
      "type": "function"
    },
    {
      "inputs": [],
      "name": "splitA_BPS",
      "outputs": [
        {
          "internalType": "uint16",
          "name": "",
          "type": "uint16"
        }
      ],
      "stateMutability": "view",
      "type": "function"
    },
    {
      "inputs": [],
      "name": "symbol",
      "outputs": [
        {
          "internalType": "string",
          "name": "",
          "type": "string"
        }
      ],
      "stateMutability": "view",
      "type": "function"
    },
    {
      "inputs": [],
      "name": "totalAssets",
      "outputs": [
        {
          "internalType": "uint256",
          "name": "",
          "type": "uint256"
        }
      ],
      "stateMutability": "view",
      "type": "function"
    },
    {
      "inputs": [],
      "name": "totalSupply",
      "outputs": [
        {
          "internalType": "uint256",
          "name": "",
          "type": "uint256"
        }
      ],
      "stateMutability": "view",
      "type": "function"
    },
    {
      "inputs": [
        {
          "internalType": "address",
          "name": "to",
          "type": "address"
        },
        {
          "internalType": "uint256",
          "name": "value",
          "type": "uint256"
        }
      ],
      "name": "transfer",
      "outputs": [
        {
          "internalType": "bool",
          "name": "",
          "type": "bool"
        }
      ],
      "stateMutability": "nonpayable",
      "type": "function"
    },
    {
      "inputs": [
        {
          "internalType": "address",
          "name": "from",
          "type": "address"
        },
        {
          "internalType": "address",
          "name": "to",
          "type": "address"
        },
        {
          "internalType": "uint256",
          "name": "value",
          "type": "uint256"
        }
      ],
      "name": "transferFrom",
      "outputs": [
        {
          "internalType": "bool",
          "name": "",
          "type": "bool"
        }
      ],
      "stateMutability": "nonpayable",
      "type": "function"
    },
    {
      "inputs": [
        {
          "internalType": "address",
          "name": "newOwner",
          "type": "address"
        }
      ],
      "name": "transferOwnership",
      "outputs": [],
      "stateMutability": "nonpayable",
      "type": "function"
    },
    {
      "inputs": [],
      "name": "unpause",
      "outputs": [],
      "stateMutability": "nonpayable",
      "type": "function"
    },
    {
      "inputs": [
        {
          "internalType": "uint256",
          "name": "assets",
          "type": "uint256"
        },
        {
          "internalType": "address",
          "name": "receiver",
          "type": "address"
        },
        {
          "internalType": "address",
          "name": "owner_",
          "type": "address"
        }
      ],
      "name": "withdraw",
      "outputs": [
        {
          "internalType": "uint256",
          "name": "shares",
          "type": "uint256"
        }
      ],
      "stateMutability": "nonpayable",
      "type": "function"
    }
  ],
  "bytecode": "0x60c06040523480156200001157600080fd5b50604051620040c5380380620040c5833981810160405281019062000037919062000476565b80826040518060400160405280601181526020017f7957425443205661756c742053686172650000000000000000000000000000008152506040518060400160405280600581526020017f79574254430000000000000000000000000000000000000000000000000000008152508160039081620000b6919062000737565b508060049081620000c8919062000737565b505050600080620000df836200022c60201b60201c565b9150915081620000f1576012620000f3565b805b60ff1660a08160ff16815250508273ffffffffffffffffffffffffffffffffffffffff1660808173ffffffffffffffffffffffffffffffffffffffff1681525050505050600073ffffffffffffffffffffffffffffffffffffffff168173ffffffffffffffffffffffffffffffffffffffff1603620001ac5760006040517f1e4fbdf7000000000000000000000000000000000000000000000000000000008152600401620001a391906200082f565b60405180910390fd5b620001bd816200034660201b60201c565b5060016006819055507fffffffffffffffffffffffffffffffffffffffffffffffffffffffffffffffff60078190555060006008819055506000600981905550612134600b60146101000a81548161ffff021916908361ffff1602179055506000600c81905550505062000941565b6000806000808473ffffffffffffffffffffffffffffffffffffffff1660405160240160405160208183030381529060405263313ce56760e01b6020820180517bffffffffffffffffffffffffffffffffffffffffffffffffffffffff8381831617835250505050604051620002a39190620008c5565b600060405180830381855afa9150503d8060008114620002e0576040519150601f19603f3d011682016040523d82523d6000602084013e620002e5565b606091505b5091509150818015620002fa57506020815110155b1562000337576000818060200190518101906200031891906200090f565b905060ff8016811162000335576001819450945050505062000341565b505b6000809350935050505b915091565b6000600560009054906101000a900473ffffffffffffffffffffffffffffffffffffffff16905081600560006101000a81548173ffffffffffffffffffffffffffffffffffffffff021916908373ffffffffffffffffffffffffffffffffffffffff1602179055508173ffffffffffffffffffffffffffffffffffffffff168173ffffffffffffffffffffffffffffffffffffffff167f8be0079c531659141344cd1fd0a4f28419497f9722a3daafe3b4186f6b6457e060405160405180910390a35050565b600080fd5b600073ffffffffffffffffffffffffffffffffffffffff82169050919050565b60006200043e8262000411565b9050919050565b620004508162000431565b81146200045c57600080fd5b50565b600081519050620004708162000445565b92915050565b6000806040838503121562000490576200048f6200040c565b5b6000620004a0858286016200045f565b9250506020620004b3858286016200045f565b9150509250929050565b600081519050919050565b7f4e487b7100000000000000000000000000000000000000000000000000000000600052604160045260246000fd5b7f4e487b7100000000000000000000000000000000000000000000000000000000600052602260045260246000fd5b600060028204905060018216806200053f57607f821691505b602082108103620005555762000554620004f7565b5b50919050565b60008190508160005260206000209050919050565b60006020601f8301049050919050565b600082821b905092915050565b600060088302620005bf7fffffffffffffffffffffffffffffffffffffffffffffffffffffffffffffffff8262000580565b620005cb868362000580565b95508019841693508086168417925050509392505050565b6000819050919050565b6000819050919050565b600062000618620006126200060c84620005e3565b620005ed565b620005e3565b9050919050565b6000819050919050565b6200063483620005f7565b6200064c62000643826200061f565b8484546200058d565b825550505050565b600090565b6200066362000654565b6200067081848462000629565b505050565b5b8181101562000698576200068c60008262000659565b60018101905062000676565b5050565b601f821115620006e757620006b1816200055b565b620006bc8462000570565b81016020851015620006cc578190505b620006e4620006db8562000570565b83018262000675565b50505b505050565b600082821c905092915050565b60006200070c60001984600802620006ec565b1980831691505092915050565b6000620007278383620006f9565b9150826002028217905092915050565b6200074282620004bd565b67ffffffffffffffff8111156200075e576200075d620004c8565b5b6200076a825462000526565b620007778282856200069c565b600060209050601f831160018114620007af57600084156200079a578287015190505b620007a6858262000719565b86555062000816565b601f198416620007bf866200055b565b60005b82811015620007e957848901518255600182019150602085019450602081019050620007c2565b8683101562000809578489015162000805601f891682620006f9565b8355505b6001600288020188555050505b505050505050565b620008298162000431565b82525050565b60006020820190506200084660008301846200081e565b92915050565b600081519050919050565b600081905092915050565b60005b838110156200088257808201518184015260208101905062000865565b60008484015250505050565b60006200089b826200084c565b620008a7818562000857565b9350620008b981856020860162000862565b80840191505092915050565b6000620008d382846200088e565b915081905092915050565b620008e981620005e3565b8114620008f557600080fd5b50565b6000815190506200090981620008de565b92915050565b6000602082840312156200092857620009276200040c565b5b60006200093884828501620008f8565b91505092915050565b60805160a05161376162000964600039600050506000610de201526137616000f3fe608060405234801561001057600080fd5b50600436106102bb5760003560e01c80638456cb5911610182578063c6e6f592116100e9578063de731c80116100a2578063ed87cf461161007c578063ed87cf46146108fe578063ef8b30f71461091c578063f2fde38b1461094c578063f499301814610968576102bb565b8063de731c80146108a8578063df2b0cf3146108c4578063e16b03a3146108e0576102bb565b8063c6e6f592146107ac578063ce96cb77146107dc578063d905777e1461080c578063d9d4410a1461083c578063dbd5edc71461085a578063dd62ed3e14610878576102bb565b806395d89b411161013b57806395d89b411461069e578063a9059cbb146106bc578063b3d7f6b9146106ec578063b460af941461071c578063ba0876521461074c578063c63d75b61461077c576102bb565b80638456cb59146105f057806386651203146105fa5780638c6c2785146106165780638da5cb5b146106345780639343ed321461065257806394bf804d1461066e576102bb565b806338d52e0f116102265780635c975abb116101df5780635c975abb1461052c5780635e14f1de1461054a5780636dbd3c94146105685780636e553f651461058657806370a08231146105b6578063715018a6146105e6576102bb565b806338d52e0f1461046a5780633af48ce9146104885780633f4ba83a146104a6578063402d267d146104b05780634b5db8f8146104e05780634cdad506146104fc576102bb565b806316de13351161027857806316de1335146103a857806318160ddd146103c457806320ff430b146103e257806323b872dd146103fe57806328ad99971461042e578063313ce5671461044c576102bb565b806301e1d114146102c057806304fd703e146102de57806306fdde03146102fa57806307a2d13a14610318578063095ea7b3146103485780630a28a47714610378575b600080fd5b6102c8610984565b6040516102d59190612ac1565b60405180910390f35b6102f860048036038101906102f39190612b0d565b610a19565b005b610302610a6c565b60405161030f9190612bca565b60405180910390f35b610332600480360381019061032d9190612b0d565b610afe565b60405161033f9190612ac1565b60405180910390f35b610362600480360381019061035d9190612c4a565b610b12565b60405161036f9190612ca5565b60405180910390f35b610392600480360381019061038d9190612b0d565b610b35565b60405161039f9190612ac1565b60405180910390f35b6103c260048036038101906103bd9190612cc0565b610b49565b005b6103cc610c10565b6040516103d99190612ac1565b60405180910390f35b6103fc60048036038101906103f79190612d00565b610c1a565b005b61041860048036038101906104139190612d00565b610d2c565b6040516104259190612ca5565b60405180910390f35b610436610d5b565b6040516104439190612ac1565b60405180910390f35b610454610d61565b6040516104619190612d6f565b60405180910390f35b610472610dde565b60405161047f9190612d99565b60405180910390f35b610490610e06565b60405161049d9190612d99565b60405180910390f35b6104ae610e2c565b005b6104ca60048036038101906104c59190612db4565b610e3e565b6040516104d79190612ac1565b60405180910390f35b6104fa60048036038101906104f59190612e1b565b610ef1565b005b61051660048036038101906105119190612b0d565b610f9d565b6040516105239190612ac1565b60405180910390f35b610534610fb1565b6040516105419190612ca5565b60405180910390f35b610552610fc8565b60405161055f9190612e57565b60405180910390f35b610570610fdc565b60405161057d9190612d99565b60405180910390f35b6105a0600480360381019061059b9190612e72565b611002565b6040516105ad9190612ac1565b60405180910390f35b6105d060048036038101906105cb9190612db4565b6110be565b6040516105dd9190612ac1565b60405180910390f35b6105ee611106565b005b6105f861111a565b005b610614600480360381019061060f9190612b0d565b61112c565b005b61061e61117f565b60405161062b9190612ac1565b60405180910390f35b61063c611185565b6040516106499190612d99565b60405180910390f35b61066c60048036038101906106679190612b0d565b6111af565b005b61068860048036038101906106839190612e72565b611202565b6040516106959190612ac1565b60405180910390f35b6106a66112cc565b6040516106b39190612bca565b60405180910390f35b6106d660048036038101906106d19190612c4a565b61135e565b6040516106e39190612ca5565b60405180910390f35b61070660048036038101906107019190612b0d565b611381565b6040516107139190612ac1565b60405180910390f35b61073660048036038101906107319190612eb2565b611395565b6040516107439190612ac1565b60405180910390f35b61076660048036038101906107619190612eb2565b6113bb565b6040516107739190612ac1565b60405180910390f35b61079660048036038101906107919190612db4565b6113e1565b6040516107a39190612ac1565b60405180910390f35b6107c660048036038101906107c19190612b0d565b611400565b6040516107d39190612ac1565b60405180910390f35b6107f660048036038101906107f19190612db4565b611414565b6040516108039190612ac1565b60405180910390f35b61082660048036038101906108219190612db4565b611430565b6040516108339190612ac1565b60405180910390f35b610844611442565b6040516108519190612ac1565b60405180910390f35b610862611448565b60405161086f9190612ac1565b60405180910390f35b610892600480360381019061088d9190612cc0565b61144e565b60405161089f9190612ac1565b60405180910390f35b6108c260048036038101906108bd9190612b0d565b6114d5565b005b6108de60048036038101906108d99190612b0d565b61151e565b005b6108e8611567565b6040516108f59190612ac1565b60405180910390f35b6109066115ef565b6040516109139190612ac1565b60405180910390f35b61093660048036038101906109319190612b0d565b6115f5565b6040516109439190612ac1565b60405180910390f35b61096660048036038101906109619190612db4565b61161b565b005b610982600480360381019061097d9190612b0d565b6116a1565b005b6000600d54610991610dde565b73ffffffffffffffffffffffffffffffffffffffff166370a08231306040518263ffffffff1660e01b81526004016109c99190612d99565b602060405180830381865afa1580156109e6573d6000803e3d6000fd5b505050506040513d601f19601f82011682018060405250810190610a0a9190612f1a565b610a149190612f76565b905090565b610a21611981565b60006009549050816009819055507fafb7e08f626725a8484f2309d137603927effd76fb01c928391646feaeaf85538183604051610a60929190612faa565b60405180910390a15050565b606060038054610a7b90613002565b80601f0160208091040260200160405190810160405280929190818152602001828054610aa790613002565b8015610af45780601f10610ac957610100808354040283529160200191610af4565b820191906000526020600020905b815481529060010190602001808311610ad757829003601f168201915b5050505050905090565b6000610b0b826000611a08565b9050919050565b600080610b1d611a61565b9050610b2a818585611a69565b600191505092915050565b6000610b42826001611a7b565b9050919050565b610b51611981565b81600a60006101000a81548173ffffffffffffffffffffffffffffffffffffffff021916908373ffffffffffffffffffffffffffffffffffffffff16021790555080600b60006101000a81548173ffffffffffffffffffffffffffffffffffffffff021916908373ffffffffffffffffffffffffffffffffffffffff1602179055507fb46243848fd4cfcaa63343d3207d276896a2fb784a5bba9c37f737170bf5fe428282604051610c04929190613033565b60405180910390a15050565b6000600254905090565b610c22611981565b610c2a610dde565b73ffffffffffffffffffffffffffffffffffffffff168373ffffffffffffffffffffffffffffffffffffffff1603610c97576040517f08c379a0000000000000000000000000000000000000000000000000000000008152600401610c8e906130a8565b60405180910390fd5b610cc282828573ffffffffffffffffffffffffffffffffffffffff16611ad49092919063ffffffff16565b8173ffffffffffffffffffffffffffffffffffffffff168373ffffffffffffffffffffffffffffffffffffffff167f3af790fafda720819b2fc6e15090606e81154e0ac9a92d38ecad006d99d20ecc83604051610d1f9190612ac1565b60405180910390a3505050565b600080610d37611a61565b9050610d44858285611b53565b610d4f858585611be8565b60019150509392505050565b600c5481565b6000610d6b610dde565b73ffffffffffffffffffffffffffffffffffffffff1663313ce5676040518163ffffffff1660e01b8152600401602060405180830381865afa158015610db5573d6000803e3d6000fd5b505050506040513d601f19601f82011682018060405250810190610dd991906130f4565b905090565b60007f0000000000000000000000000000000000000000000000000000000000000000905090565b600b60009054906101000a900473ffffffffffffffffffffffffffffffffffffffff1681565b610e34611981565b610e3c611cdc565b565b6000610e48610fb1565b15610e565760009050610eec565b6000610e60610984565b90506000600754821015610e815781600754610e7c9190613121565b610e84565b60005b9050600060095403610e9a578092505050610eec565b6000610ead610ea8866110be565b610afe565b90506009548110610ec45760009350505050610eec565b600081600954610ed49190613121565b9050828110610ee35782610ee5565b805b9450505050505b919050565b610ef9611981565b61271061ffff168161ffff161115610f46576040517f08c379a0000000000000000000000000000000000000000000000000000000008152600401610f3d906131a1565b60405180910390fd5b80600b60146101000a81548161ffff021916908361ffff1602179055507f96bcd82a7097a1ecf42e848d65159d42bbe6abd8e499e0eeb8d21b795ab2b36e81604051610f929190612e57565b60405180910390a150565b6000610faa826000611a08565b9050919050565b6000600560149054906101000a900460ff16905090565b600b60149054906101000a900461ffff1681565b600a60009054906101000a900473ffffffffffffffffffffffffffffffffffffffff1681565b600061100c611d3f565b611014611d80565b600854831015611059576040517f08c379a00000000000000000000000000000000000000000000000000000000081526004016110509061320d565b60405180910390fd5b61106282610e3e565b8311156110a4576040517f08c379a000000000000000000000000000000000000000000000000000000000815260040161109b90613279565b60405180910390fd5b6110ae8383611dc6565b90506110b8611e48565b92915050565b60008060008373ffffffffffffffffffffffffffffffffffffffff1673ffffffffffffffffffffffffffffffffffffffff168152602001908152602001600020549050919050565b61110e611981565b6111186000611e52565b565b611122611981565b61112a611f18565b565b611134611981565b60006007549050816007819055507ffbe912fdd0185617e8cafd12d97b59175b90e15f5c629faf6413469af54ee0808183604051611173929190612faa565b60405180910390a15050565b60095481565b6000600560009054906101000a900473ffffffffffffffffffffffffffffffffffffffff16905090565b6111b7611981565b60006008549050816008819055507f0dcdbc9335d5a201f9468fb9834fe45d13a7ab04a01d25490ecc17d60c907a5d81836040516111f6929190612faa565b60405180910390a15050565b600061120c611d3f565b611214611d80565b600061121f84611381565b9050600854811015611266576040517f08c379a000000000000000000000000000000000000000000000000000000000815260040161125d9061320d565b60405180910390fd5b61126f83610e3e565b8111156112b1576040517f08c379a00000000000000000000000000000000000000000000000000000000081526004016112a890613279565b60405180910390fd5b6112bb8484611f7b565b9150506112c6611e48565b92915050565b6060600480546112db90613002565b80601f016020809104026020016040519081016040528092919081815260200182805461130790613002565b80156113545780601f1061132957610100808354040283529160200191611354565b820191906000526020600020905b81548152906001019060200180831161133757829003601f168201915b5050505050905090565b600080611369611a61565b9050611376818585611be8565b600191505092915050565b600061138e826001611a08565b9050919050565b600061139f611d80565b6113aa848484611ffd565b90506113b4611e48565b9392505050565b60006113c5611d80565b6113d0848484612081565b90506113da611e48565b9392505050565b6000806113ed83610e3e565b90506113f881611400565b915050919050565b600061140d826000611a7b565b9050919050565b6000611429611422836110be565b6000611a08565b9050919050565b600061143b826110be565b9050919050565b600d5481565b60075481565b6000600160008473ffffffffffffffffffffffffffffffffffffffff1673ffffffffffffffffffffffffffffffffffffffff16815260200190815260200160002060008373ffffffffffffffffffffffffffffffffffffffff1673ffffffffffffffffffffffffffffffffffffffff16815260200190815260200160002054905092915050565b6114dd611981565b80600d819055507fb1192aefe7ab3536b03da143dcfb04d2b6b7030aefb359fd208c024d879078eb816040516115139190612ac1565b60405180910390a150565b611526611981565b80600c819055507f172986b16dc05e54bbccfebe40aa3108d009f459e905c48f287dcc2d83e3791a8160405161155c9190612ac1565b60405180910390a150565b6000611571610dde565b73ffffffffffffffffffffffffffffffffffffffff166370a08231306040518263ffffffff1660e01b81526004016115a99190612d99565b602060405180830381865afa1580156115c6573d6000803e3d6000fd5b505050506040513d601f19601f820116820180604052508101906115ea9190612f1a565b905090565b60085481565b600060085482101561160a5760009050611616565b61161382612105565b90505b919050565b611623611981565b600073ffffffffffffffffffffffffffffffffffffffff168173ffffffffffffffffffffffffffffffffffffffff16036116955760006040517f1e4fbdf700000000000000000000000000000000000000000000000000000000815260040161168c9190612d99565b60405180910390fd5b61169e81611e52565b50565b6116a9611d3f565b6116b1611d80565b600073ffffffffffffffffffffffffffffffffffffffff16600a60009054906101000a900473ffffffffffffffffffffffffffffffffffffffff1673ffffffffffffffffffffffffffffffffffffffff161415801561175f5750600073ffffffffffffffffffffffffffffffffffffffff16600b60009054906101000a900473ffffffffffffffffffffffffffffffffffffffff1673ffffffffffffffffffffffffffffffffffffffff1614155b61179e576040517f08c379a0000000000000000000000000000000000000000000000000000000008152600401611795906132e5565b60405180910390fd5b600c548110156117e3576040517f08c379a00000000000000000000000000000000000000000000000000000000081526004016117da90613351565b60405180910390fd5b60006117ed611567565b905080821115611832576040517f08c379a0000000000000000000000000000000000000000000000000000000008152600401611829906133bd565b60405180910390fd5b600061271061ffff16600b60149054906101000a900461ffff1661ffff168461185b91906133dd565b611865919061344e565b9050600081846118759190613121565b90506118cb600a60009054906101000a900473ffffffffffffffffffffffffffffffffffffffff16836118a6610dde565b73ffffffffffffffffffffffffffffffffffffffff16611ad49092919063ffffffff16565b61191f600b60009054906101000a900473ffffffffffffffffffffffffffffffffffffffff16826118fa610dde565b73ffffffffffffffffffffffffffffffffffffffff16611ad49092919063ffffffff16565b83600d60008282546119319190612f76565b925050819055507f83387a3342ff1ebc5e437dc9ae0f98274afda12a11cf547eebec05a3e0b8f8a784838360405161196b9392919061347f565b60405180910390a150505061197e611e48565b50565b611989611a61565b73ffffffffffffffffffffffffffffffffffffffff166119a7611185565b73ffffffffffffffffffffffffffffffffffffffff1614611a06576119ca611a61565b6040517f118cdaa70000000000000000000000000000000000000000000000000000000081526004016119fd9190612d99565b60405180910390fd5b565b6000611a596001611a17610984565b611a219190612f76565b611a29612119565b600a611a3591906135e9565b611a3d610c10565b611a479190612f76565b848661211e909392919063ffffffff16565b905092915050565b600033905090565b611a76838383600161216d565b505050565b6000611acc611a88612119565b600a611a9491906135e9565b611a9c610c10565b611aa69190612f76565b6001611ab0610984565b611aba9190612f76565b848661211e909392919063ffffffff16565b905092915050565b611b4e838473ffffffffffffffffffffffffffffffffffffffff1663a9059cbb8585604051602401611b07929190613634565b604051602081830303815290604052915060e01b6020820180517bffffffffffffffffffffffffffffffffffffffffffffffffffffffff8381831617835250505050612344565b505050565b6000611b5f848461144e565b90507fffffffffffffffffffffffffffffffffffffffffffffffffffffffffffffffff811015611be25781811015611bd2578281836040517ffb8f41b2000000000000000000000000000000000000000000000000000000008152600401611bc99392919061365d565b60405180910390fd5b611be18484848403600061216d565b5b50505050565b600073ffffffffffffffffffffffffffffffffffffffff168373ffffffffffffffffffffffffffffffffffffffff1603611c5a5760006040517f96c6fd1e000000000000000000000000000000000000000000000000000000008152600401611c519190612d99565b60405180910390fd5b600073ffffffffffffffffffffffffffffffffffffffff168273ffffffffffffffffffffffffffffffffffffffff1603611ccc5760006040517fec442f05000000000000000000000000000000000000000000000000000000008152600401611cc39190612d99565b60405180910390fd5b611cd78383836123e6565b505050565b611ce461260b565b6000600560146101000a81548160ff0219169083151502179055507f5db9ee0a495bf2e6ff9c91a7834c1ba4fdd244a5e8aa4e537bd38aeae4b073aa611d28611a61565b604051611d359190612d99565b60405180910390a1565b611d47610fb1565b15611d7e576040517fd93c066500000000000000000000000000000000000000000000000000000000815260040160405180910390fd5b565b600260065403611dbc576040517f3ee5aeb500000000000000000000000000000000000000000000000000000000815260040160405180910390fd5b6002600681905550565b600080611dd283610e3e565b905080841115611e1d578284826040517f79012fb2000000000000000000000000000000000000000000000000000000008152600401611e149392919061365d565b60405180910390fd5b6000611e28856115f5565b9050611e3d611e35611a61565b85878461264b565b809250505092915050565b6001600681905550565b6000600560009054906101000a900473ffffffffffffffffffffffffffffffffffffffff16905081600560006101000a81548173ffffffffffffffffffffffffffffffffffffffff021916908373ffffffffffffffffffffffffffffffffffffffff1602179055508173ffffffffffffffffffffffffffffffffffffffff168173ffffffffffffffffffffffffffffffffffffffff167f8be0079c531659141344cd1fd0a4f28419497f9722a3daafe3b4186f6b6457e060405160405180910390a35050565b611f20611d3f565b6001600560146101000a81548160ff0219169083151502179055507f62e78cea01bee320cd4e420270b5ea74000d11b0c9f74754ebdbfc544b05a258611f64611a61565b604051611f719190612d99565b60405180910390a1565b600080611f87836113e1565b905080841115611fd2578284826040517f284ff667000000000000000000000000000000000000000000000000000000008152600401611fc99392919061365d565b60405180910390fd5b6000611fdd85611381565b9050611ff2611fea611a61565b85838861264b565b809250505092915050565b60008061200983611414565b905080851115612054578285826040517ffe9cceec00000000000000000000000000000000000000000000000000000000815260040161204b9392919061365d565b60405180910390fd5b600061205f86610b35565b905061207561206c611a61565b868689856126d5565b80925050509392505050565b60008061208d83611430565b9050808511156120d8578285826040517fb94abeec0000000000000000000000000000000000000000000000000000000081526004016120cf9392919061365d565b60405180910390fd5b60006120e386610f9d565b90506120f96120f0611a61565b8686848a6126d5565b80925050509392505050565b6000612112826000611a7b565b9050919050565b600090565b600061214e61212c836127b5565b80156121495750600084806121445761214361341f565b5b868809115b6127e3565b6121598686866127ef565b6121639190612f76565b9050949350505050565b600073ffffffffffffffffffffffffffffffffffffffff168473ffffffffffffffffffffffffffffffffffffffff16036121df5760006040517fe602df050000000000000000000000000000000000000000000000000000000081526004016121d69190612d99565b60405180910390fd5b600073ffffffffffffffffffffffffffffffffffffffff168373ffffffffffffffffffffffffffffffffffffffff16036122515760006040517f94280d620000000000000000000000000000000000000000000000000000000081526004016122489190612d99565b60405180910390fd5b81600160008673ffffffffffffffffffffffffffffffffffffffff1673ffffffffffffffffffffffffffffffffffffffff16815260200190815260200160002060008573ffffffffffffffffffffffffffffffffffffffff1673ffffffffffffffffffffffffffffffffffffffff16815260200190815260200160002081905550801561233e578273ffffffffffffffffffffffffffffffffffffffff168473ffffffffffffffffffffffffffffffffffffffff167f8c5be1e5ebec7d5bd14f71427d1e84f3dd0314c0f7b2291e5b200ac8c7c3b925846040516123359190612ac1565b60405180910390a35b50505050565b600080602060008451602086016000885af180612367576040513d6000823e3d81fd5b3d92506000519150506000821461238257600181141561239e565b60008473ffffffffffffffffffffffffffffffffffffffff163b145b156123e057836040517f5274afe70000000000000000000000000000000000000000000000000000000081526004016123d79190612d99565b60405180910390fd5b50505050565b600073ffffffffffffffffffffffffffffffffffffffff168373ffffffffffffffffffffffffffffffffffffffff160361243857806002600082825461242c9190612f76565b9250508190555061250b565b60008060008573ffffffffffffffffffffffffffffffffffffffff1673ffffffffffffffffffffffffffffffffffffffff168152602001908152602001600020549050818110156124c4578381836040517fe450d38c0000000000000000000000000000000000000000000000000000000081526004016124bb9392919061365d565b60405180910390fd5b8181036000808673ffffffffffffffffffffffffffffffffffffffff1673ffffffffffffffffffffffffffffffffffffffff16815260200190815260200160002081905550505b600073ffffffffffffffffffffffffffffffffffffffff168273ffffffffffffffffffffffffffffffffffffffff160361255457806002600082825403925050819055506125a1565b806000808473ffffffffffffffffffffffffffffffffffffffff1673ffffffffffffffffffffffffffffffffffffffff168152602001908152602001600020600082825401925050819055505b8173ffffffffffffffffffffffffffffffffffffffff168373ffffffffffffffffffffffffffffffffffffffff167fddf252ad1be2c89b69c2b068fc378daa952ba7f163c4a11628f55a4df523b3ef836040516125fe9190612ac1565b60405180910390a3505050565b612613610fb1565b612649576040517f8dfc202b00000000000000000000000000000000000000000000000000000000815260040160405180910390fd5b565b61265e612656610dde565b8530856128d7565b6126688382612959565b8273ffffffffffffffffffffffffffffffffffffffff168473ffffffffffffffffffffffffffffffffffffffff167fdcbc1c05240f31ff3ad067ef1ee35ce4997762752e3a095284754544f4c709d784846040516126c7929190612faa565b60405180910390a350505050565b8273ffffffffffffffffffffffffffffffffffffffff168573ffffffffffffffffffffffffffffffffffffffff161461271457612713838683611b53565b5b61271e83826129db565b612730612729610dde565b8584611ad4565b8273ffffffffffffffffffffffffffffffffffffffff168473ffffffffffffffffffffffffffffffffffffffff168673ffffffffffffffffffffffffffffffffffffffff167ffbde797d201c681b91056529119e0b02407c7bb96a4a2c75c01fc9667232c8db85856040516127a6929190612faa565b60405180910390a45050505050565b6000600160028360038111156127ce576127cd613694565b5b6127d891906136c3565b60ff16149050919050565b60008115159050919050565b60008060006127fe8686612a5d565b91509150600082036128245783818161281a5761281961341f565b5b04925050506128d0565b8184116128445761284361283e6000861460126011612a7c565b612a96565b5b600084868809905081811183039250808203915060008560000386169050808604955080830492506001818260000304019050808402831792506000600287600302189050808702600203810290508087026002038102905080870260020381029050808702600203810290508087026002038102905080870260020381029050808402955050505050505b9392505050565b612953848573ffffffffffffffffffffffffffffffffffffffff166323b872dd86868660405160240161290c939291906136f4565b604051602081830303815290604052915060e01b6020820180517bffffffffffffffffffffffffffffffffffffffffffffffffffffffff8381831617835250505050612344565b50505050565b600073ffffffffffffffffffffffffffffffffffffffff168273ffffffffffffffffffffffffffffffffffffffff16036129cb5760006040517fec442f050000000000000000000000000000000000000000000000000000000081526004016129c29190612d99565b60405180910390fd5b6129d7600083836123e6565b5050565b600073ffffffffffffffffffffffffffffffffffffffff168273ffffffffffffffffffffffffffffffffffffffff1603612a4d5760006040517f96c6fd1e000000000000000000000000000000000000000000000000000000008152600401612a449190612d99565b60405180910390fd5b612a59826000836123e6565b5050565b6000806000198385098385029150818110828203039250509250929050565b6000612a87846127e3565b82841802821890509392505050565b634e487b71600052806020526024601cfd5b6000819050919050565b612abb81612aa8565b82525050565b6000602082019050612ad66000830184612ab2565b92915050565b600080fd5b612aea81612aa8565b8114612af557600080fd5b50565b600081359050612b0781612ae1565b92915050565b600060208284031215612b2357612b22612adc565b5b6000612b3184828501612af8565b91505092915050565b600081519050919050565b600082825260208201905092915050565b60005b83811015612b74578082015181840152602081019050612b59565b60008484015250505050565b6000601f19601f8301169050919050565b6000612b9c82612b3a565b612ba68185612b45565b9350612bb6818560208601612b56565b612bbf81612b80565b840191505092915050565b60006020820190508181036000830152612be48184612b91565b905092915050565b600073ffffffffffffffffffffffffffffffffffffffff82169050919050565b6000612c1782612bec565b9050919050565b612c2781612c0c565b8114612c3257600080fd5b50565b600081359050612c4481612c1e565b92915050565b60008060408385031215612c6157612c60612adc565b5b6000612c6f85828601612c35565b9250506020612c8085828601612af8565b9150509250929050565b60008115159050919050565b612c9f81612c8a565b82525050565b6000602082019050612cba6000830184612c96565b92915050565b60008060408385031215612cd757612cd6612adc565b5b6000612ce585828601612c35565b9250506020612cf685828601612c35565b9150509250929050565b600080600060608486031215612d1957612d18612adc565b5b6000612d2786828701612c35565b9350506020612d3886828701612c35565b9250506040612d4986828701612af8565b9150509250925092565b600060ff82169050919050565b612d6981612d53565b82525050565b6000602082019050612d846000830184612d60565b92915050565b612d9381612c0c565b82525050565b6000602082019050612dae6000830184612d8a565b92915050565b600060208284031215612dca57612dc9612adc565b5b6000612dd884828501612c35565b91505092915050565b600061ffff82169050919050565b612df881612de1565b8114612e0357600080fd5b50565b600081359050612e1581612def565b92915050565b600060208284031215612e3157612e30612adc565b5b6000612e3f84828501612e06565b91505092915050565b612e5181612de1565b82525050565b6000602082019050612e6c6000830184612e48565b92915050565b60008060408385031215612e8957612e88612adc565b5b6000612e9785828601612af8565b9250506020612ea885828601612c35565b9150509250929050565b600080600060608486031215612ecb57612eca612adc565b5b6000612ed986828701612af8565b9350506020612eea86828701612c35565b9250506040612efb86828701612c35565b9150509250925092565b600081519050612f1481612ae1565b92915050565b600060208284031215612f3057612f2f612adc565b5b6000612f3e84828501612f05565b91505092915050565b7f4e487b7100000000000000000000000000000000000000000000000000000000600052601160045260246000fd5b6000612f8182612aa8565b9150612f8c83612aa8565b9250828201905080821115612fa457612fa3612f47565b5b92915050565b6000604082019050612fbf6000830185612ab2565b612fcc6020830184612ab2565b9392505050565b7f4e487b7100000000000000000000000000000000000000000000000000000000600052602260045260246000fd5b6000600282049050600182168061301a57607f821691505b60208210810361302d5761302c612fd3565b5b50919050565b60006040820190506130486000830185612d8a565b6130556020830184612d8a565b9392505050565b7f63616e6e6f742072657363756520617373657400000000000000000000000000600082015250565b6000613092601383612b45565b915061309d8261305c565b602082019050919050565b600060208201905081810360008301526130c181613085565b9050919050565b6130d181612d53565b81146130dc57600080fd5b50565b6000815190506130ee816130c8565b92915050565b60006020828403121561310a57613109612adc565b5b6000613118848285016130df565b91505092915050565b600061312c82612aa8565b915061313783612aa8565b925082820390508181111561314f5761314e612f47565b5b92915050565b7f73706c6974203e20313030250000000000000000000000000000000000000000600082015250565b600061318b600c83612b45565b915061319682613155565b602082019050919050565b600060208201905081810360008301526131ba8161317e565b9050919050565b7f6465706f7369742062656c6f77206d696e696d756d0000000000000000000000600082015250565b60006131f7601583612b45565b9150613202826131c1565b602082019050919050565b60006020820190508181036000830152613226816131ea565b9050919050565b7f6578636565647320636170000000000000000000000000000000000000000000600082015250565b6000613263600b83612b45565b915061326e8261322d565b602082019050919050565b6000602082019050818103600083015261329281613256565b9050919050565b7f726563697069656e7473206e6f74207365740000000000000000000000000000600082015250565b60006132cf601283612b45565b91506132da82613299565b602082019050919050565b600060208201905081810360008301526132fe816132c2565b9050919050565b7f62656c6f77207468726573686f6c640000000000000000000000000000000000600082015250565b600061333b600f83612b45565b915061334682613305565b602082019050919050565b6000602082019050818103600083015261336a8161332e565b9050919050565b7f696e73756666696369656e742069646c65000000000000000000000000000000600082015250565b60006133a7601183612b45565b91506133b282613371565b602082019050919050565b600060208201905081810360008301526133d68161339a565b9050919050565b60006133e882612aa8565b91506133f383612aa8565b925082820261340181612aa8565b9150828204841483151761341857613417612f47565b5b5092915050565b7f4e487b7100000000000000000000000000000000000000000000000000000000600052601260045260246000fd5b600061345982612aa8565b915061346483612aa8565b9250826134745761347361341f565b5b828204905092915050565b60006060820190506134946000830186612ab2565b6134a16020830185612ab2565b6134ae6040830184612ab2565b949350505050565b60008160011c9050919050565b6000808291508390505b600185111561350d578086048111156134e9576134e8612f47565b5b60018516156134f85780820291505b8081029050613506856134b6565b94506134cd565b94509492505050565b60008261352657600190506135e2565b8161353457600090506135e2565b816001811461354a576002811461355457613583565b60019150506135e2565b60ff84111561356657613565612f47565b5b8360020a91508482111561357d5761357c612f47565b5b506135e2565b5060208310610133831016604e8410600b84101617156135b85782820a9050838111156135b3576135b2612f47565b5b6135e2565b6135c584848460016134c3565b925090508184048111156135dc576135db612f47565b5b81810290505b9392505050565b60006135f482612aa8565b91506135ff83612d53565b925061362c7fffffffffffffffffffffffffffffffffffffffffffffffffffffffffffffffff8484613516565b905092915050565b60006040820190506136496000830185612d8a565b6136566020830184612ab2565b9392505050565b60006060820190506136726000830186612d8a565b61367f6020830185612ab2565b61368c6040830184612ab2565b949350505050565b7f4e487b7100000000000000000000000000000000000000000000000000000000600052602160045260246000fd5b60006136ce82612d53565b91506136d983612d53565b9250826136e9576136e861341f565b5b828206905092915050565b60006060820190506137096000830186612d8a565b6137166020830185612d8a565b6137236040830184612ab2565b94935050505056fea2646970667358221220965a3d0b256fea79e865a7b89ca8dace6f8a7448f7e22bd1ec32e5e03ae88fbb64736f6c63430008180033",
  "linkReferences": {},
  "deployedLinkReferences": {}
}